{
  "_format": "hh-sol-artifact-1",
  "contractName": "NFT",
  "sourceName": "contracts/NFT.sol",
  "abi": [
    {
      "anonymous": false,
      "inputs": [
        {
          "indexed": true,
          "internalType": "address",
          "name": "owner",
          "type": "address"
        },
        {
          "indexed": true,
          "internalType": "address",
          "name": "approved",
          "type": "address"
        },
        {
          "indexed": true,
          "internalType": "uint256",
          "name": "tokenId",
          "type": "uint256"
        }
      ],
      "name": "Approval",
      "type": "event"
    },
    {
      "anonymous": false,
      "inputs": [
        {
          "indexed": true,
          "internalType": "address",
          "name": "owner",
          "type": "address"
        },
        {
          "indexed": true,
          "internalType": "address",
          "name": "operator",
          "type": "address"
        },
        {
          "indexed": false,
          "internalType": "bool",
          "name": "approved",
          "type": "bool"
        }
      ],
      "name": "ApprovalForAll",
      "type": "event"
    },
    {
      "anonymous": false,
      "inputs": [
        {
          "indexed": true,
          "internalType": "address",
          "name": "from",
          "type": "address"
        },
        {
          "indexed": true,
          "internalType": "address",
          "name": "to",
          "type": "address"
        },
        {
          "indexed": true,
          "internalType": "uint256",
          "name": "tokenId",
          "type": "uint256"
        }
      ],
      "name": "Transfer",
      "type": "event"
    },
    {
      "inputs": [
        {
          "internalType": "address",
          "name": "to",
          "type": "address"
        },
        {
          "internalType": "uint256",
          "name": "tokenId",
          "type": "uint256"
        }
      ],
      "name": "approve",
      "outputs": [],
      "stateMutability": "nonpayable",
      "type": "function"
    },
    {
      "inputs": [
        {
          "internalType": "address",
          "name": "owner",
          "type": "address"
        }
      ],
      "name": "balanceOf",
      "outputs": [
        {
          "internalType": "uint256",
          "name": "",
          "type": "uint256"
        }
      ],
      "stateMutability": "view",
      "type": "function"
    },
    {
      "inputs": [
        {
          "internalType": "string",
          "name": "tokenURI",
          "type": "string"
        }
      ],
      "name": "createToken",
      "outputs": [
        {
          "internalType": "uint256",
          "name": "",
          "type": "uint256"
        }
      ],
      "stateMutability": "nonpayable",
      "type": "function"
    },
    {
      "inputs": [
        {
          "internalType": "uint256",
          "name": "tokenId",
          "type": "uint256"
        }
      ],
      "name": "getApproved",
      "outputs": [
        {
          "internalType": "address",
          "name": "",
          "type": "address"
        }
      ],
      "stateMutability": "view",
      "type": "function"
    },
    {
      "inputs": [],
      "name": "getTotalSupply",
      "outputs": [
        {
          "internalType": "uint256",
          "name": "",
          "type": "uint256"
        }
      ],
      "stateMutability": "view",
      "type": "function"
    },
    {
      "inputs": [
        {
          "internalType": "address",
          "name": "marketPlaceAddress",
          "type": "address"
        }
      ],
      "name": "initialize",
      "outputs": [],
      "stateMutability": "nonpayable",
      "type": "function"
    },
    {
      "inputs": [
        {
          "internalType": "address",
          "name": "owner",
          "type": "address"
        },
        {
          "internalType": "address",
          "name": "operator",
          "type": "address"
        }
      ],
      "name": "isApprovedForAll",
      "outputs": [
        {
          "internalType": "bool",
          "name": "",
          "type": "bool"
        }
      ],
      "stateMutability": "view",
      "type": "function"
    },
    {
      "inputs": [],
      "name": "name",
      "outputs": [
        {
          "internalType": "string",
          "name": "",
          "type": "string"
        }
      ],
      "stateMutability": "view",
      "type": "function"
    },
    {
      "inputs": [
        {
          "internalType": "uint256",
          "name": "tokenId",
          "type": "uint256"
        }
      ],
      "name": "ownerOf",
      "outputs": [
        {
          "internalType": "address",
          "name": "",
          "type": "address"
        }
      ],
      "stateMutability": "view",
      "type": "function"
    },
    {
      "inputs": [
        {
          "internalType": "address",
          "name": "from",
          "type": "address"
        },
        {
          "internalType": "address",
          "name": "to",
          "type": "address"
        },
        {
          "internalType": "uint256",
          "name": "tokenId",
          "type": "uint256"
        }
      ],
      "name": "safeTransferFrom",
      "outputs": [],
      "stateMutability": "nonpayable",
      "type": "function"
    },
    {
      "inputs": [
        {
          "internalType": "address",
          "name": "from",
          "type": "address"
        },
        {
          "internalType": "address",
          "name": "to",
          "type": "address"
        },
        {
          "internalType": "uint256",
          "name": "tokenId",
          "type": "uint256"
        },
        {
          "internalType": "bytes",
          "name": "_data",
          "type": "bytes"
        }
      ],
      "name": "safeTransferFrom",
      "outputs": [],
      "stateMutability": "nonpayable",
      "type": "function"
    },
    {
      "inputs": [
        {
          "internalType": "address",
          "name": "operator",
          "type": "address"
        },
        {
          "internalType": "bool",
          "name": "approved",
          "type": "bool"
        }
      ],
      "name": "setApprovalForAll",
      "outputs": [],
      "stateMutability": "nonpayable",
      "type": "function"
    },
    {
      "inputs": [
        {
          "internalType": "bytes4",
          "name": "interfaceId",
          "type": "bytes4"
        }
      ],
      "name": "supportsInterface",
      "outputs": [
        {
          "internalType": "bool",
          "name": "",
          "type": "bool"
        }
      ],
      "stateMutability": "view",
      "type": "function"
    },
    {
      "inputs": [],
      "name": "symbol",
      "outputs": [
        {
          "internalType": "string",
          "name": "",
          "type": "string"
        }
      ],
      "stateMutability": "view",
      "type": "function"
    },
    {
      "inputs": [
        {
          "internalType": "uint256",
          "name": "tokenId",
          "type": "uint256"
        }
      ],
      "name": "tokenURI",
      "outputs": [
        {
          "internalType": "string",
          "name": "",
          "type": "string"
        }
      ],
      "stateMutability": "view",
      "type": "function"
    },
    {
      "inputs": [
        {
          "internalType": "address",
          "name": "from",
          "type": "address"
        },
        {
          "internalType": "address",
          "name": "to",
          "type": "address"
        },
        {
          "internalType": "uint256",
          "name": "tokenId",
          "type": "uint256"
        }
      ],
      "name": "transferFrom",
      "outputs": [],
      "stateMutability": "nonpayable",
      "type": "function"
    }
  ],
  "bytecode": "0x608060405234801561001057600080fd5b506119ca806100206000396000f3fe608060405234801561001057600080fd5b50600436106101005760003560e01c806370a0823111610097578063c4d66de811610066578063c4d66de81461021d578063c4e41b2214610230578063c87b56dd14610238578063e985e9c51461024b57600080fd5b806370a08231146101dc57806395d89b41146101ef578063a22cb465146101f7578063b88d4fde1461020a57600080fd5b806323b872dd116100d357806323b872dd1461018257806342842e0e1461019557806345576f94146101a85780636352211e146101c957600080fd5b806301ffc9a71461010557806306fdde031461012d578063081812fc14610142578063095ea7b31461016d575b600080fd5b610118610113366004611631565b610287565b60405190151581526020015b60405180910390f35b6101356102d9565b604051610124919061175f565b6101556101503660046116af565b61036b565b6040516001600160a01b039091168152602001610124565b61018061017b366004611608565b6103f8565b005b61018061019036600461151a565b61050e565b6101806101a336600461151a565b61053f565b6101bb6101b6366004611669565b61055a565b604051908152602001610124565b6101556101d73660046116af565b6105a2565b6101bb6101ea3660046114ce565b610619565b6101356106a0565b6101806102053660046115ce565b6106af565b610180610218366004611555565b6106be565b61018061022b3660046114ce565b6106f6565b6101bb6107c4565b6101356102463660046116af565b6107d4565b6101186102593660046114e8565b6001600160a01b039182166000908152606a6020908152604080832093909416825291909152205460ff1690565b60006001600160e01b031982166380ac58cd60e01b14806102b857506001600160e01b03198216635b5e139f60e01b145b806102d357506301ffc9a760e01b6001600160e01b03198316145b92915050565b6060606580546102e8906118d2565b80601f0160208091040260200160405190810160405280929190818152602001828054610314906118d2565b80156103615780601f1061033657610100808354040283529160200191610361565b820191906000526020600020905b81548152906001019060200180831161034457829003601f168201915b5050505050905090565b60006103768261094b565b6103dc5760405162461bcd60e51b815260206004820152602c60248201527f4552433732313a20617070726f76656420717565727920666f72206e6f6e657860448201526b34b9ba32b73a103a37b5b2b760a11b60648201526084015b60405180910390fd5b506000908152606960205260409020546001600160a01b031690565b6000610403826105a2565b9050806001600160a01b0316836001600160a01b031614156104715760405162461bcd60e51b815260206004820152602160248201527f4552433732313a20617070726f76616c20746f2063757272656e74206f776e656044820152603960f91b60648201526084016103d3565b336001600160a01b038216148061048d575061048d8133610259565b6104ff5760405162461bcd60e51b815260206004820152603860248201527f4552433732313a20617070726f76652063616c6c6572206973206e6f74206f7760448201527f6e6572206e6f7220617070726f76656420666f7220616c6c000000000000000060648201526084016103d3565b6105098383610968565b505050565b61051833826109d6565b6105345760405162461bcd60e51b81526004016103d390611812565b610509838383610abc565b610509838383604051806020016040528060008152506106be565b600061056a60c980546001019055565b600061057560c95490565b90506105813382610c5c565b61058b8184610d8f565b60ca546102d3906001600160a01b031660016106af565b6000818152606760205260408120546001600160a01b0316806102d35760405162461bcd60e51b815260206004820152602960248201527f4552433732313a206f776e657220717565727920666f72206e6f6e657869737460448201526832b73a103a37b5b2b760b91b60648201526084016103d3565b60006001600160a01b0382166106845760405162461bcd60e51b815260206004820152602a60248201527f4552433732313a2062616c616e636520717565727920666f7220746865207a65604482015269726f206164647265737360b01b60648201526084016103d3565b506001600160a01b031660009081526068602052604090205490565b6060606680546102e8906118d2565b6106ba338383610e1a565b5050565b6106c833836109d6565b6106e45760405162461bcd60e51b81526004016103d390611812565b6106f084848484610ee9565b50505050565b600054610100900460ff168061070f575060005460ff16155b61072b5760405162461bcd60e51b81526004016103d3906117c4565b600054610100900460ff1615801561074d576000805461ffff19166101011790555b6107946040518060400160405280600a815260200169223ab1b5903a37b5b2b760b11b8152506040518060400160405280600381526020016211151160ea1b815250610f1c565b60ca80546001600160a01b0319166001600160a01b03841617905580156106ba576000805461ff00191690555050565b60006107cf60c95490565b905090565b60606107df8261094b565b6108455760405162461bcd60e51b815260206004820152603160248201527f45524337323155524953746f726167653a2055524920717565727920666f72206044820152703737b732bc34b9ba32b73a103a37b5b2b760791b60648201526084016103d3565b6000828152609760205260408120805461085e906118d2565b80601f016020809104026020016040519081016040528092919081815260200182805461088a906118d2565b80156108d75780601f106108ac576101008083540402835291602001916108d7565b820191906000526020600020905b8154815290600101906020018083116108ba57829003601f168201915b5050505050905060006108f560408051602081019091526000815290565b9050805160001415610908575092915050565b81511561093a5780826040516020016109229291906116f3565b60405160208183030381529060405292505050919050565b61094384610fa3565b949350505050565b6000908152606760205260409020546001600160a01b0316151590565b600081815260696020526040902080546001600160a01b0319166001600160a01b038416908117909155819061099d826105a2565b6001600160a01b03167f8c5be1e5ebec7d5bd14f71427d1e84f3dd0314c0f7b2291e5b200ac8c7c3b92560405160405180910390a45050565b60006109e18261094b565b610a425760405162461bcd60e51b815260206004820152602c60248201527f4552433732313a206f70657261746f7220717565727920666f72206e6f6e657860448201526b34b9ba32b73a103a37b5b2b760a11b60648201526084016103d3565b6000610a4d836105a2565b9050806001600160a01b0316846001600160a01b03161480610a885750836001600160a01b0316610a7d8461036b565b6001600160a01b0316145b8061094357506001600160a01b038082166000908152606a602090815260408083209388168352929052205460ff16610943565b826001600160a01b0316610acf826105a2565b6001600160a01b031614610b375760405162461bcd60e51b815260206004820152602960248201527f4552433732313a207472616e73666572206f6620746f6b656e2074686174206960448201526839903737ba1037bbb760b91b60648201526084016103d3565b6001600160a01b038216610b995760405162461bcd60e51b8152602060048201526024808201527f4552433732313a207472616e7366657220746f20746865207a65726f206164646044820152637265737360e01b60648201526084016103d3565b610ba4600082610968565b6001600160a01b0383166000908152606860205260408120805460019290610bcd90849061188f565b90915550506001600160a01b0382166000908152606860205260408120805460019290610bfb908490611863565b909155505060008181526067602052604080822080546001600160a01b0319166001600160a01b0386811691821790925591518493918716917fddf252ad1be2c89b69c2b068fc378daa952ba7f163c4a11628f55a4df523b3ef91a4505050565b6001600160a01b038216610cb25760405162461bcd60e51b815260206004820181905260248201527f4552433732313a206d696e7420746f20746865207a65726f206164647265737360448201526064016103d3565b610cbb8161094b565b15610d085760405162461bcd60e51b815260206004820152601c60248201527f4552433732313a20746f6b656e20616c7265616479206d696e7465640000000060448201526064016103d3565b6001600160a01b0382166000908152606860205260408120805460019290610d31908490611863565b909155505060008181526067602052604080822080546001600160a01b0319166001600160a01b03861690811790915590518392907fddf252ad1be2c89b69c2b068fc378daa952ba7f163c4a11628f55a4df523b3ef908290a45050565b610d988261094b565b610dfb5760405162461bcd60e51b815260206004820152602e60248201527f45524337323155524953746f726167653a2055524920736574206f66206e6f6e60448201526d32bc34b9ba32b73a103a37b5b2b760911b60648201526084016103d3565b60008281526097602090815260409091208251610509928401906113a3565b816001600160a01b0316836001600160a01b03161415610e7c5760405162461bcd60e51b815260206004820152601960248201527f4552433732313a20617070726f766520746f2063616c6c65720000000000000060448201526064016103d3565b6001600160a01b038381166000818152606a6020908152604080832094871680845294825291829020805460ff191686151590811790915591519182527f17307eab39ab6107e8899845ad3d59bd9653f200f220920489ca2b5937696c31910160405180910390a3505050565b610ef4848484610abc565b610f008484848461107b565b6106f05760405162461bcd60e51b81526004016103d390611772565b600054610100900460ff1680610f35575060005460ff16155b610f515760405162461bcd60e51b81526004016103d3906117c4565b600054610100900460ff16158015610f73576000805461ffff19166101011790555b610f7b611188565b610f83611188565b610f8d83836111f4565b8015610509576000805461ff0019169055505050565b6060610fae8261094b565b6110125760405162461bcd60e51b815260206004820152602f60248201527f4552433732314d657461646174613a2055524920717565727920666f72206e6f60448201526e3732bc34b9ba32b73a103a37b5b2b760891b60648201526084016103d3565b600061102960408051602081019091526000815290565b905060008151116110495760405180602001604052806000815250611074565b8061105384611289565b6040516020016110649291906116f3565b6040516020818303038152906040525b9392505050565b60006001600160a01b0384163b1561117d57604051630a85bd0160e11b81526001600160a01b0385169063150b7a02906110bf903390899088908890600401611722565b602060405180830381600087803b1580156110d957600080fd5b505af1925050508015611109575060408051601f3d908101601f191682019092526111069181019061164d565b60015b611163573d808015611137576040519150601f19603f3d011682016040523d82523d6000602084013e61113c565b606091505b50805161115b5760405162461bcd60e51b81526004016103d390611772565b805181602001fd5b6001600160e01b031916630a85bd0160e11b149050610943565b506001949350505050565b600054610100900460ff16806111a1575060005460ff16155b6111bd5760405162461bcd60e51b81526004016103d3906117c4565b600054610100900460ff161580156111df576000805461ffff19166101011790555b80156111f1576000805461ff00191690555b50565b600054610100900460ff168061120d575060005460ff16155b6112295760405162461bcd60e51b81526004016103d3906117c4565b600054610100900460ff1615801561124b576000805461ffff19166101011790555b825161125e9060659060208601906113a3565b5081516112729060669060208501906113a3565b508015610509576000805461ff0019169055505050565b6060816112ad5750506040805180820190915260018152600360fc1b602082015290565b8160005b81156112d757806112c18161190d565b91506112d09050600a8361187b565b91506112b1565b60008167ffffffffffffffff81111561130057634e487b7160e01b600052604160045260246000fd5b6040519080825280601f01601f19166020018201604052801561132a576020820181803683370190505b5090505b84156109435761133f60018361188f565b915061134c600a86611928565b611357906030611863565b60f81b81838151811061137a57634e487b7160e01b600052603260045260246000fd5b60200101906001600160f81b031916908160001a90535061139c600a8661187b565b945061132e565b8280546113af906118d2565b90600052602060002090601f0160209004810192826113d15760008555611417565b82601f106113ea57805160ff1916838001178555611417565b82800160010185558215611417579182015b828111156114175782518255916020019190600101906113fc565b50611423929150611427565b5090565b5b808211156114235760008155600101611428565b600067ffffffffffffffff8084111561145757611457611968565b604051601f8501601f19908116603f0116810190828211818310171561147f5761147f611968565b8160405280935085815286868601111561149857600080fd5b858560208301376000602087830101525050509392505050565b80356001600160a01b03811681146114c957600080fd5b919050565b6000602082840312156114df578081fd5b611074826114b2565b600080604083850312156114fa578081fd5b611503836114b2565b9150611511602084016114b2565b90509250929050565b60008060006060848603121561152e578081fd5b611537846114b2565b9250611545602085016114b2565b9150604084013590509250925092565b6000806000806080858703121561156a578081fd5b611573856114b2565b9350611581602086016114b2565b925060408501359150606085013567ffffffffffffffff8111156115a3578182fd5b8501601f810187136115b3578182fd5b6115c28782356020840161143c565b91505092959194509250565b600080604083850312156115e0578182fd5b6115e9836114b2565b9150602083013580151581146115fd578182fd5b809150509250929050565b6000806040838503121561161a578182fd5b611623836114b2565b946020939093013593505050565b600060208284031215611642578081fd5b81356110748161197e565b60006020828403121561165e578081fd5b81516110748161197e565b60006020828403121561167a578081fd5b813567ffffffffffffffff811115611690578182fd5b8201601f810184136116a0578182fd5b6109438482356020840161143c565b6000602082840312156116c0578081fd5b5035919050565b600081518084526116df8160208601602086016118a6565b601f01601f19169290920160200192915050565b600083516117058184602088016118a6565b8351908301906117198183602088016118a6565b01949350505050565b6001600160a01b0385811682528416602082015260408101839052608060608201819052600090611755908301846116c7565b9695505050505050565b60208152600061107460208301846116c7565b60208082526032908201527f4552433732313a207472616e7366657220746f206e6f6e20455243373231526560408201527131b2b4bb32b91034b6b83632b6b2b73a32b960711b606082015260800190565b6020808252602e908201527f496e697469616c697a61626c653a20636f6e747261637420697320616c72656160408201526d191e481a5b9a5d1a585b1a5e995960921b606082015260800190565b60208082526031908201527f4552433732313a207472616e736665722063616c6c6572206973206e6f74206f6040820152701ddb995c881b9bdc88185c1c1c9bdd9959607a1b606082015260800190565b600082198211156118765761187661193c565b500190565b60008261188a5761188a611952565b500490565b6000828210156118a1576118a161193c565b500390565b60005b838110156118c15781810151838201526020016118a9565b838111156106f05750506000910152565b600181811c908216806118e657607f821691505b6020821081141561190757634e487b7160e01b600052602260045260246000fd5b50919050565b60006000198214156119215761192161193c565b5060010190565b60008261193757611937611952565b500690565b634e487b7160e01b600052601160045260246000fd5b634e487b7160e01b600052601260045260246000fd5b634e487b7160e01b600052604160045260246000fd5b6001600160e01b0319811681146111f157600080fdfea26469706673582212201449faf31770d3050efbee2353882d2b876a108b8050dc4f737fbeaa5c7bff6f64736f6c63430008040033",
  "linkReferences": {},
  "deployedLinkReferences": {}
}