{
  "_format": "hh-sol-artifact-1",
  "contractName": "NFT",
  "sourceName": "contracts/NFT.sol",
  "abi": [
    {
      "anonymous": false,
      "inputs": [
        {
          "indexed": true,
          "internalType": "address",
          "name": "owner",
          "type": "address"
        },
        {
          "indexed": true,
          "internalType": "address",
          "name": "approved",
          "type": "address"
        },
        {
          "indexed": true,
          "internalType": "uint256",
          "name": "tokenId",
          "type": "uint256"
        }
      ],
      "name": "Approval",
      "type": "event"
    },
    {
      "anonymous": false,
      "inputs": [
        {
          "indexed": true,
          "internalType": "address",
          "name": "owner",
          "type": "address"
        },
        {
          "indexed": true,
          "internalType": "address",
          "name": "operator",
          "type": "address"
        },
        {
          "indexed": false,
          "internalType": "bool",
          "name": "approved",
          "type": "bool"
        }
      ],
      "name": "ApprovalForAll",
      "type": "event"
    },
    {
      "anonymous": false,
      "inputs": [
        {
          "indexed": true,
          "internalType": "address",
          "name": "from",
          "type": "address"
        },
        {
          "indexed": true,
          "internalType": "address",
          "name": "to",
          "type": "address"
        },
        {
          "indexed": true,
          "internalType": "uint256",
          "name": "tokenId",
          "type": "uint256"
        }
      ],
      "name": "Transfer",
      "type": "event"
    },
    {
      "inputs": [
        {
          "internalType": "address",
          "name": "to",
          "type": "address"
        },
        {
          "internalType": "uint256",
          "name": "tokenId",
          "type": "uint256"
        }
      ],
      "name": "approve",
      "outputs": [],
      "stateMutability": "nonpayable",
      "type": "function"
    },
    {
      "inputs": [
        {
          "internalType": "address",
          "name": "owner",
          "type": "address"
        }
      ],
      "name": "balanceOf",
      "outputs": [
        {
          "internalType": "uint256",
          "name": "",
          "type": "uint256"
        }
      ],
      "stateMutability": "view",
      "type": "function"
    },
    {
      "inputs": [
        {
          "internalType": "string",
          "name": "tokenURI",
          "type": "string"
        }
      ],
      "name": "createToken",
      "outputs": [
        {
          "internalType": "uint256",
          "name": "",
          "type": "uint256"
        }
      ],
      "stateMutability": "nonpayable",
      "type": "function"
    },
    {
      "inputs": [
        {
          "internalType": "uint256",
          "name": "tokenId",
          "type": "uint256"
        }
      ],
      "name": "getApproved",
      "outputs": [
        {
          "internalType": "address",
          "name": "",
          "type": "address"
        }
      ],
      "stateMutability": "view",
      "type": "function"
    },
    {
      "inputs": [
        {
          "internalType": "address",
          "name": "marketPlaceAddress",
          "type": "address"
        }
      ],
      "name": "initialize",
      "outputs": [],
      "stateMutability": "nonpayable",
      "type": "function"
    },
    {
      "inputs": [
        {
          "internalType": "address",
          "name": "owner",
          "type": "address"
        },
        {
          "internalType": "address",
          "name": "operator",
          "type": "address"
        }
      ],
      "name": "isApprovedForAll",
      "outputs": [
        {
          "internalType": "bool",
          "name": "",
          "type": "bool"
        }
      ],
      "stateMutability": "view",
      "type": "function"
    },
    {
      "inputs": [],
      "name": "name",
      "outputs": [
        {
          "internalType": "string",
          "name": "",
          "type": "string"
        }
      ],
      "stateMutability": "view",
      "type": "function"
    },
    {
      "inputs": [
        {
          "internalType": "uint256",
          "name": "tokenId",
          "type": "uint256"
        }
      ],
      "name": "ownerOf",
      "outputs": [
        {
          "internalType": "address",
          "name": "",
          "type": "address"
        }
      ],
      "stateMutability": "view",
      "type": "function"
    },
    {
      "inputs": [
        {
          "internalType": "address",
          "name": "from",
          "type": "address"
        },
        {
          "internalType": "address",
          "name": "to",
          "type": "address"
        },
        {
          "internalType": "uint256",
          "name": "tokenId",
          "type": "uint256"
        }
      ],
      "name": "safeTransferFrom",
      "outputs": [],
      "stateMutability": "nonpayable",
      "type": "function"
    },
    {
      "inputs": [
        {
          "internalType": "address",
          "name": "from",
          "type": "address"
        },
        {
          "internalType": "address",
          "name": "to",
          "type": "address"
        },
        {
          "internalType": "uint256",
          "name": "tokenId",
          "type": "uint256"
        },
        {
          "internalType": "bytes",
          "name": "_data",
          "type": "bytes"
        }
      ],
      "name": "safeTransferFrom",
      "outputs": [],
      "stateMutability": "nonpayable",
      "type": "function"
    },
    {
      "inputs": [
        {
          "internalType": "address",
          "name": "operator",
          "type": "address"
        },
        {
          "internalType": "bool",
          "name": "approved",
          "type": "bool"
        }
      ],
      "name": "setApprovalForAll",
      "outputs": [],
      "stateMutability": "nonpayable",
      "type": "function"
    },
    {
      "inputs": [
        {
          "internalType": "bytes4",
          "name": "interfaceId",
          "type": "bytes4"
        }
      ],
      "name": "supportsInterface",
      "outputs": [
        {
          "internalType": "bool",
          "name": "",
          "type": "bool"
        }
      ],
      "stateMutability": "view",
      "type": "function"
    },
    {
      "inputs": [],
      "name": "symbol",
      "outputs": [
        {
          "internalType": "string",
          "name": "",
          "type": "string"
        }
      ],
      "stateMutability": "view",
      "type": "function"
    },
    {
      "inputs": [
        {
          "internalType": "uint256",
          "name": "tokenId",
          "type": "uint256"
        }
      ],
      "name": "tokenURI",
      "outputs": [
        {
          "internalType": "string",
          "name": "",
          "type": "string"
        }
      ],
      "stateMutability": "view",
      "type": "function"
    },
    {
      "inputs": [
        {
          "internalType": "address",
          "name": "from",
          "type": "address"
        },
        {
          "internalType": "address",
          "name": "to",
          "type": "address"
        },
        {
          "internalType": "uint256",
          "name": "tokenId",
          "type": "uint256"
        }
      ],
      "name": "transferFrom",
      "outputs": [],
      "stateMutability": "nonpayable",
      "type": "function"
    }
  ],
  "bytecode": "0x608060405234801561001057600080fd5b506119a7806100206000396000f3fe608060405234801561001057600080fd5b50600436106100f55760003560e01c80636352211e11610097578063b88d4fde11610066578063b88d4fde146101ff578063c4d66de814610212578063c87b56dd14610225578063e985e9c51461023857600080fd5b80636352211e146101be57806370a08231146101d157806395d89b41146101e4578063a22cb465146101ec57600080fd5b8063095ea7b3116100d3578063095ea7b31461016257806323b872dd1461017757806342842e0e1461018a57806345576f941461019d57600080fd5b806301ffc9a7146100fa57806306fdde0314610122578063081812fc14610137575b600080fd5b61010d61010836600461160e565b610274565b60405190151581526020015b60405180910390f35b61012a6102c6565b604051610119919061173c565b61014a61014536600461168c565b610358565b6040516001600160a01b039091168152602001610119565b6101756101703660046115e5565b6103e5565b005b6101756101853660046114f7565b6104fb565b6101756101983660046114f7565b61052c565b6101b06101ab366004611646565b610547565b604051908152602001610119565b61014a6101cc36600461168c565b61058f565b6101b06101df3660046114ab565b610606565b61012a61068d565b6101756101fa3660046115ab565b61069c565b61017561020d366004611532565b6106ab565b6101756102203660046114ab565b6106e3565b61012a61023336600461168c565b6107b1565b61010d6102463660046114c5565b6001600160a01b039182166000908152606a6020908152604080832093909416825291909152205460ff1690565b60006001600160e01b031982166380ac58cd60e01b14806102a557506001600160e01b03198216635b5e139f60e01b145b806102c057506301ffc9a760e01b6001600160e01b03198316145b92915050565b6060606580546102d5906118af565b80601f0160208091040260200160405190810160405280929190818152602001828054610301906118af565b801561034e5780601f106103235761010080835404028352916020019161034e565b820191906000526020600020905b81548152906001019060200180831161033157829003601f168201915b5050505050905090565b600061036382610928565b6103c95760405162461bcd60e51b815260206004820152602c60248201527f4552433732313a20617070726f76656420717565727920666f72206e6f6e657860448201526b34b9ba32b73a103a37b5b2b760a11b60648201526084015b60405180910390fd5b506000908152606960205260409020546001600160a01b031690565b60006103f08261058f565b9050806001600160a01b0316836001600160a01b0316141561045e5760405162461bcd60e51b815260206004820152602160248201527f4552433732313a20617070726f76616c20746f2063757272656e74206f776e656044820152603960f91b60648201526084016103c0565b336001600160a01b038216148061047a575061047a8133610246565b6104ec5760405162461bcd60e51b815260206004820152603860248201527f4552433732313a20617070726f76652063616c6c6572206973206e6f74206f7760448201527f6e6572206e6f7220617070726f76656420666f7220616c6c000000000000000060648201526084016103c0565b6104f68383610945565b505050565b61050533826109b3565b6105215760405162461bcd60e51b81526004016103c0906117ef565b6104f6838383610a99565b6104f6838383604051806020016040528060008152506106ab565b600061055760c980546001019055565b600061056260c95490565b905061056e3382610c39565b6105788184610d6c565b60ca546102c0906001600160a01b0316600161069c565b6000818152606760205260408120546001600160a01b0316806102c05760405162461bcd60e51b815260206004820152602960248201527f4552433732313a206f776e657220717565727920666f72206e6f6e657869737460448201526832b73a103a37b5b2b760b91b60648201526084016103c0565b60006001600160a01b0382166106715760405162461bcd60e51b815260206004820152602a60248201527f4552433732313a2062616c616e636520717565727920666f7220746865207a65604482015269726f206164647265737360b01b60648201526084016103c0565b506001600160a01b031660009081526068602052604090205490565b6060606680546102d5906118af565b6106a7338383610df7565b5050565b6106b533836109b3565b6106d15760405162461bcd60e51b81526004016103c0906117ef565b6106dd84848484610ec6565b50505050565b600054610100900460ff16806106fc575060005460ff16155b6107185760405162461bcd60e51b81526004016103c0906117a1565b600054610100900460ff1615801561073a576000805461ffff19166101011790555b6107816040518060400160405280600a815260200169223ab1b5903a37b5b2b760b11b8152506040518060400160405280600381526020016211151160ea1b815250610ef9565b60ca80546001600160a01b0319166001600160a01b03841617905580156106a7576000805461ff00191690555050565b60606107bc82610928565b6108225760405162461bcd60e51b815260206004820152603160248201527f45524337323155524953746f726167653a2055524920717565727920666f72206044820152703737b732bc34b9ba32b73a103a37b5b2b760791b60648201526084016103c0565b6000828152609760205260408120805461083b906118af565b80601f0160208091040260200160405190810160405280929190818152602001828054610867906118af565b80156108b45780601f10610889576101008083540402835291602001916108b4565b820191906000526020600020905b81548152906001019060200180831161089757829003601f168201915b5050505050905060006108d260408051602081019091526000815290565b90508051600014156108e5575092915050565b8151156109175780826040516020016108ff9291906116d0565b60405160208183030381529060405292505050919050565b61092084610f80565b949350505050565b6000908152606760205260409020546001600160a01b0316151590565b600081815260696020526040902080546001600160a01b0319166001600160a01b038416908117909155819061097a8261058f565b6001600160a01b03167f8c5be1e5ebec7d5bd14f71427d1e84f3dd0314c0f7b2291e5b200ac8c7c3b92560405160405180910390a45050565b60006109be82610928565b610a1f5760405162461bcd60e51b815260206004820152602c60248201527f4552433732313a206f70657261746f7220717565727920666f72206e6f6e657860448201526b34b9ba32b73a103a37b5b2b760a11b60648201526084016103c0565b6000610a2a8361058f565b9050806001600160a01b0316846001600160a01b03161480610a655750836001600160a01b0316610a5a84610358565b6001600160a01b0316145b8061092057506001600160a01b038082166000908152606a602090815260408083209388168352929052205460ff16610920565b826001600160a01b0316610aac8261058f565b6001600160a01b031614610b145760405162461bcd60e51b815260206004820152602960248201527f4552433732313a207472616e73666572206f6620746f6b656e2074686174206960448201526839903737ba1037bbb760b91b60648201526084016103c0565b6001600160a01b038216610b765760405162461bcd60e51b8152602060048201526024808201527f4552433732313a207472616e7366657220746f20746865207a65726f206164646044820152637265737360e01b60648201526084016103c0565b610b81600082610945565b6001600160a01b0383166000908152606860205260408120805460019290610baa90849061186c565b90915550506001600160a01b0382166000908152606860205260408120805460019290610bd8908490611840565b909155505060008181526067602052604080822080546001600160a01b0319166001600160a01b0386811691821790925591518493918716917fddf252ad1be2c89b69c2b068fc378daa952ba7f163c4a11628f55a4df523b3ef91a4505050565b6001600160a01b038216610c8f5760405162461bcd60e51b815260206004820181905260248201527f4552433732313a206d696e7420746f20746865207a65726f206164647265737360448201526064016103c0565b610c9881610928565b15610ce55760405162461bcd60e51b815260206004820152601c60248201527f4552433732313a20746f6b656e20616c7265616479206d696e7465640000000060448201526064016103c0565b6001600160a01b0382166000908152606860205260408120805460019290610d0e908490611840565b909155505060008181526067602052604080822080546001600160a01b0319166001600160a01b03861690811790915590518392907fddf252ad1be2c89b69c2b068fc378daa952ba7f163c4a11628f55a4df523b3ef908290a45050565b610d7582610928565b610dd85760405162461bcd60e51b815260206004820152602e60248201527f45524337323155524953746f726167653a2055524920736574206f66206e6f6e60448201526d32bc34b9ba32b73a103a37b5b2b760911b60648201526084016103c0565b600082815260976020908152604090912082516104f692840190611380565b816001600160a01b0316836001600160a01b03161415610e595760405162461bcd60e51b815260206004820152601960248201527f4552433732313a20617070726f766520746f2063616c6c65720000000000000060448201526064016103c0565b6001600160a01b038381166000818152606a6020908152604080832094871680845294825291829020805460ff191686151590811790915591519182527f17307eab39ab6107e8899845ad3d59bd9653f200f220920489ca2b5937696c31910160405180910390a3505050565b610ed1848484610a99565b610edd84848484611058565b6106dd5760405162461bcd60e51b81526004016103c09061174f565b600054610100900460ff1680610f12575060005460ff16155b610f2e5760405162461bcd60e51b81526004016103c0906117a1565b600054610100900460ff16158015610f50576000805461ffff19166101011790555b610f58611165565b610f60611165565b610f6a83836111d1565b80156104f6576000805461ff0019169055505050565b6060610f8b82610928565b610fef5760405162461bcd60e51b815260206004820152602f60248201527f4552433732314d657461646174613a2055524920717565727920666f72206e6f60448201526e3732bc34b9ba32b73a103a37b5b2b760891b60648201526084016103c0565b600061100660408051602081019091526000815290565b905060008151116110265760405180602001604052806000815250611051565b8061103084611266565b6040516020016110419291906116d0565b6040516020818303038152906040525b9392505050565b60006001600160a01b0384163b1561115a57604051630a85bd0160e11b81526001600160a01b0385169063150b7a029061109c9033908990889088906004016116ff565b602060405180830381600087803b1580156110b657600080fd5b505af19250505080156110e6575060408051601f3d908101601f191682019092526110e39181019061162a565b60015b611140573d808015611114576040519150601f19603f3d011682016040523d82523d6000602084013e611119565b606091505b5080516111385760405162461bcd60e51b81526004016103c09061174f565b805181602001fd5b6001600160e01b031916630a85bd0160e11b149050610920565b506001949350505050565b600054610100900460ff168061117e575060005460ff16155b61119a5760405162461bcd60e51b81526004016103c0906117a1565b600054610100900460ff161580156111bc576000805461ffff19166101011790555b80156111ce576000805461ff00191690555b50565b600054610100900460ff16806111ea575060005460ff16155b6112065760405162461bcd60e51b81526004016103c0906117a1565b600054610100900460ff16158015611228576000805461ffff19166101011790555b825161123b906065906020860190611380565b50815161124f906066906020850190611380565b5080156104f6576000805461ff0019169055505050565b60608161128a5750506040805180820190915260018152600360fc1b602082015290565b8160005b81156112b4578061129e816118ea565b91506112ad9050600a83611858565b915061128e565b60008167ffffffffffffffff8111156112dd57634e487b7160e01b600052604160045260246000fd5b6040519080825280601f01601f191660200182016040528015611307576020820181803683370190505b5090505b84156109205761131c60018361186c565b9150611329600a86611905565b611334906030611840565b60f81b81838151811061135757634e487b7160e01b600052603260045260246000fd5b60200101906001600160f81b031916908160001a905350611379600a86611858565b945061130b565b82805461138c906118af565b90600052602060002090601f0160209004810192826113ae57600085556113f4565b82601f106113c757805160ff19168380011785556113f4565b828001600101855582156113f4579182015b828111156113f45782518255916020019190600101906113d9565b50611400929150611404565b5090565b5b808211156114005760008155600101611405565b600067ffffffffffffffff8084111561143457611434611945565b604051601f8501601f19908116603f0116810190828211818310171561145c5761145c611945565b8160405280935085815286868601111561147557600080fd5b858560208301376000602087830101525050509392505050565b80356001600160a01b03811681146114a657600080fd5b919050565b6000602082840312156114bc578081fd5b6110518261148f565b600080604083850312156114d7578081fd5b6114e08361148f565b91506114ee6020840161148f565b90509250929050565b60008060006060848603121561150b578081fd5b6115148461148f565b92506115226020850161148f565b9150604084013590509250925092565b60008060008060808587031215611547578081fd5b6115508561148f565b935061155e6020860161148f565b925060408501359150606085013567ffffffffffffffff811115611580578182fd5b8501601f81018713611590578182fd5b61159f87823560208401611419565b91505092959194509250565b600080604083850312156115bd578182fd5b6115c68361148f565b9150602083013580151581146115da578182fd5b809150509250929050565b600080604083850312156115f7578182fd5b6116008361148f565b946020939093013593505050565b60006020828403121561161f578081fd5b81356110518161195b565b60006020828403121561163b578081fd5b81516110518161195b565b600060208284031215611657578081fd5b813567ffffffffffffffff81111561166d578182fd5b8201601f8101841361167d578182fd5b61092084823560208401611419565b60006020828403121561169d578081fd5b5035919050565b600081518084526116bc816020860160208601611883565b601f01601f19169290920160200192915050565b600083516116e2818460208801611883565b8351908301906116f6818360208801611883565b01949350505050565b6001600160a01b0385811682528416602082015260408101839052608060608201819052600090611732908301846116a4565b9695505050505050565b60208152600061105160208301846116a4565b60208082526032908201527f4552433732313a207472616e7366657220746f206e6f6e20455243373231526560408201527131b2b4bb32b91034b6b83632b6b2b73a32b960711b606082015260800190565b6020808252602e908201527f496e697469616c697a61626c653a20636f6e747261637420697320616c72656160408201526d191e481a5b9a5d1a585b1a5e995960921b606082015260800190565b60208082526031908201527f4552433732313a207472616e736665722063616c6c6572206973206e6f74206f6040820152701ddb995c881b9bdc88185c1c1c9bdd9959607a1b606082015260800190565b6000821982111561185357611853611919565b500190565b6000826118675761186761192f565b500490565b60008282101561187e5761187e611919565b500390565b60005b8381101561189e578181015183820152602001611886565b838111156106dd5750506000910152565b600181811c908216806118c357607f821691505b602082108114156118e457634e487b7160e01b600052602260045260246000fd5b50919050565b60006000198214156118fe576118fe611919565b5060010190565b6000826119145761191461192f565b500690565b634e487b7160e01b600052601160045260246000fd5b634e487b7160e01b600052601260045260246000fd5b634e487b7160e01b600052604160045260246000fd5b6001600160e01b0319811681146111ce57600080fdfea2646970667358221220798a9955d47e5f62274d4c364dd5ee4fb91e1f891f87da1e623c496de2daf6d464736f6c63430008040033",
  "linkReferences": {},
  "deployedLinkReferences": {}
}