{
  "_format": "hh-sol-artifact-1",
  "contractName": "NFTMarket",
  "sourceName": "contracts/NFTMarket.sol",
  "abi": [
    {
      "anonymous": false,
      "inputs": [
        {
          "indexed": false,
          "internalType": "address",
          "name": "previousAdmin",
          "type": "address"
        },
        {
          "indexed": false,
          "internalType": "address",
          "name": "newAdmin",
          "type": "address"
        }
      ],
      "name": "AdminChanged",
      "type": "event"
    },
    {
      "anonymous": false,
      "inputs": [
        {
          "indexed": true,
          "internalType": "address",
          "name": "beacon",
          "type": "address"
        }
      ],
      "name": "BeaconUpgraded",
      "type": "event"
    },
    {
      "anonymous": false,
      "inputs": [
        {
          "indexed": true,
          "internalType": "uint256",
          "name": "itemId",
          "type": "uint256"
        },
        {
          "indexed": true,
          "internalType": "address",
          "name": "nftContract",
          "type": "address"
        },
        {
          "indexed": true,
          "internalType": "uint256",
          "name": "tokenId",
          "type": "uint256"
        },
        {
          "indexed": false,
          "internalType": "address",
          "name": "seller",
          "type": "address"
        },
        {
          "indexed": false,
          "internalType": "address",
          "name": "owner",
          "type": "address"
        },
        {
          "indexed": false,
          "internalType": "bool",
          "name": "isSold",
          "type": "bool"
        },
        {
          "indexed": false,
          "internalType": "bool",
          "name": "isPublished",
          "type": "bool"
        },
        {
          "indexed": false,
          "internalType": "uint256",
          "name": "priceStep",
          "type": "uint256"
        },
        {
          "indexed": false,
          "internalType": "uint256",
          "name": "lowestPrice",
          "type": "uint256"
        },
        {
          "indexed": false,
          "internalType": "uint256",
          "name": "endTime",
          "type": "uint256"
        }
      ],
      "name": "MarketItemCreate",
      "type": "event"
    },
    {
      "anonymous": false,
      "inputs": [
        {
          "indexed": true,
          "internalType": "address",
          "name": "previousOwner",
          "type": "address"
        },
        {
          "indexed": true,
          "internalType": "address",
          "name": "newOwner",
          "type": "address"
        }
      ],
      "name": "OwnershipTransferred",
      "type": "event"
    },
    {
      "anonymous": false,
      "inputs": [
        {
          "indexed": true,
          "internalType": "uint256",
          "name": "itemId",
          "type": "uint256"
        },
        {
          "indexed": true,
          "internalType": "address",
          "name": "nftContract",
          "type": "address"
        },
        {
          "indexed": true,
          "internalType": "uint256",
          "name": "tokenId",
          "type": "uint256"
        },
        {
          "indexed": false,
          "internalType": "address",
          "name": "seller",
          "type": "address"
        },
        {
          "indexed": false,
          "internalType": "address",
          "name": "owner",
          "type": "address"
        },
        {
          "indexed": false,
          "internalType": "uint256",
          "name": "price",
          "type": "uint256"
        },
        {
          "indexed": false,
          "internalType": "bool",
          "name": "isSold",
          "type": "bool"
        },
        {
          "indexed": false,
          "internalType": "bool",
          "name": "isPublished",
          "type": "bool"
        }
      ],
      "name": "SaleMarketItem",
      "type": "event"
    },
    {
      "anonymous": false,
      "inputs": [
        {
          "indexed": true,
          "internalType": "address",
          "name": "implementation",
          "type": "address"
        }
      ],
      "name": "Upgraded",
      "type": "event"
    },
    {
      "anonymous": false,
      "inputs": [
        {
          "indexed": true,
          "internalType": "uint256",
          "name": "itemId",
          "type": "uint256"
        },
        {
          "indexed": false,
          "internalType": "address",
          "name": "payerAddress",
          "type": "address"
        },
        {
          "indexed": false,
          "internalType": "uint256",
          "name": "highestPrice",
          "type": "uint256"
        }
      ],
      "name": "bidMarketItem",
      "type": "event"
    },
    {
      "inputs": [
        {
          "internalType": "uint256",
          "name": "amount",
          "type": "uint256"
        },
        {
          "internalType": "uint256",
          "name": "itemId",
          "type": "uint256"
        },
        {
          "internalType": "address",
          "name": "tokenAddress",
          "type": "address"
        }
      ],
      "name": "bid",
      "outputs": [],
      "stateMutability": "payable",
      "type": "function"
    },
    {
      "inputs": [
        {
          "internalType": "uint256",
          "name": "itemId",
          "type": "uint256"
        }
      ],
      "name": "checkExisting",
      "outputs": [
        {
          "internalType": "bool",
          "name": "",
          "type": "bool"
        }
      ],
      "stateMutability": "view",
      "type": "function"
    },
    {
      "inputs": [
        {
          "internalType": "address",
          "name": "nftContract",
          "type": "address"
        },
        {
          "internalType": "uint256",
          "name": "tokenId",
          "type": "uint256"
        },
        {
          "internalType": "uint256",
          "name": "priceStep",
          "type": "uint256"
        },
        {
          "internalType": "uint256",
          "name": "endTime",
          "type": "uint256"
        },
        {
          "internalType": "uint256",
          "name": "lowestPrice",
          "type": "uint256"
        }
      ],
      "name": "createMarketItem",
      "outputs": [],
      "stateMutability": "payable",
      "type": "function"
    },
    {
      "inputs": [],
      "name": "getAllUnsoldItems",
      "outputs": [
        {
          "components": [
            {
              "internalType": "uint256",
              "name": "itemId",
              "type": "uint256"
            },
            {
              "internalType": "address",
              "name": "nftContract",
              "type": "address"
            },
            {
              "internalType": "uint256",
              "name": "tokenId",
              "type": "uint256"
            },
            {
              "internalType": "address payable",
              "name": "seller",
              "type": "address"
            },
            {
              "internalType": "address payable",
              "name": "owner",
              "type": "address"
            },
            {
              "internalType": "bool",
              "name": "isSold",
              "type": "bool"
            },
            {
              "internalType": "bool",
              "name": "isPublished",
              "type": "bool"
            },
            {
              "internalType": "uint256",
              "name": "priceStep",
              "type": "uint256"
            },
            {
              "internalType": "uint256",
              "name": "lowestPrice",
              "type": "uint256"
            },
            {
              "internalType": "uint256",
              "name": "endTime",
              "type": "uint256"
            },
            {
              "internalType": "uint256",
              "name": "highestPrice",
              "type": "uint256"
            },
            {
              "internalType": "address payable",
              "name": "payerAddress",
              "type": "address"
            }
          ],
          "internalType": "struct NFTMarket.MarketItem[]",
          "name": "",
          "type": "tuple[]"
        }
      ],
      "stateMutability": "view",
      "type": "function"
    },
    {
      "inputs": [],
      "name": "getUserCreateItems",
      "outputs": [
        {
          "components": [
            {
              "internalType": "uint256",
              "name": "itemId",
              "type": "uint256"
            },
            {
              "internalType": "address",
              "name": "nftContract",
              "type": "address"
            },
            {
              "internalType": "uint256",
              "name": "tokenId",
              "type": "uint256"
            },
            {
              "internalType": "address payable",
              "name": "seller",
              "type": "address"
            },
            {
              "internalType": "address payable",
              "name": "owner",
              "type": "address"
            },
            {
              "internalType": "bool",
              "name": "isSold",
              "type": "bool"
            },
            {
              "internalType": "bool",
              "name": "isPublished",
              "type": "bool"
            },
            {
              "internalType": "uint256",
              "name": "priceStep",
              "type": "uint256"
            },
            {
              "internalType": "uint256",
              "name": "lowestPrice",
              "type": "uint256"
            },
            {
              "internalType": "uint256",
              "name": "endTime",
              "type": "uint256"
            },
            {
              "internalType": "uint256",
              "name": "highestPrice",
              "type": "uint256"
            },
            {
              "internalType": "address payable",
              "name": "payerAddress",
              "type": "address"
            }
          ],
          "internalType": "struct NFTMarket.MarketItem[]",
          "name": "",
          "type": "tuple[]"
        }
      ],
      "stateMutability": "view",
      "type": "function"
    },
    {
      "inputs": [],
      "name": "getUserItems",
      "outputs": [
        {
          "components": [
            {
              "internalType": "uint256",
              "name": "itemId",
              "type": "uint256"
            },
            {
              "internalType": "address",
              "name": "nftContract",
              "type": "address"
            },
            {
              "internalType": "uint256",
              "name": "tokenId",
              "type": "uint256"
            },
            {
              "internalType": "address payable",
              "name": "seller",
              "type": "address"
            },
            {
              "internalType": "address payable",
              "name": "owner",
              "type": "address"
            },
            {
              "internalType": "bool",
              "name": "isSold",
              "type": "bool"
            },
            {
              "internalType": "bool",
              "name": "isPublished",
              "type": "bool"
            },
            {
              "internalType": "uint256",
              "name": "priceStep",
              "type": "uint256"
            },
            {
              "internalType": "uint256",
              "name": "lowestPrice",
              "type": "uint256"
            },
            {
              "internalType": "uint256",
              "name": "endTime",
              "type": "uint256"
            },
            {
              "internalType": "uint256",
              "name": "highestPrice",
              "type": "uint256"
            },
            {
              "internalType": "address payable",
              "name": "payerAddress",
              "type": "address"
            }
          ],
          "internalType": "struct NFTMarket.MarketItem[]",
          "name": "",
          "type": "tuple[]"
        }
      ],
      "stateMutability": "view",
      "type": "function"
    },
    {
      "inputs": [],
      "name": "initialize",
      "outputs": [],
      "stateMutability": "nonpayable",
      "type": "function"
    },
    {
      "inputs": [],
      "name": "listingPrice",
      "outputs": [
        {
          "internalType": "uint256",
          "name": "",
          "type": "uint256"
        }
      ],
      "stateMutability": "view",
      "type": "function"
    },
    {
      "inputs": [],
      "name": "owner",
      "outputs": [
        {
          "internalType": "address",
          "name": "",
          "type": "address"
        }
      ],
      "stateMutability": "view",
      "type": "function"
    },
    {
      "inputs": [],
      "name": "renounceOwnership",
      "outputs": [],
      "stateMutability": "nonpayable",
      "type": "function"
    },
    {
      "inputs": [
        {
          "internalType": "address",
          "name": "nftContract",
          "type": "address"
        },
        {
          "internalType": "address",
          "name": "tokenContract",
          "type": "address"
        },
        {
          "internalType": "uint256",
          "name": "itemId",
          "type": "uint256"
        }
      ],
      "name": "saleMarketItem",
      "outputs": [],
      "stateMutability": "payable",
      "type": "function"
    },
    {
      "inputs": [
        {
          "internalType": "uint256",
          "name": "_listingPrice",
          "type": "uint256"
        }
      ],
      "name": "setListingPrice",
      "outputs": [],
      "stateMutability": "nonpayable",
      "type": "function"
    },
    {
      "inputs": [
        {
          "internalType": "address",
          "name": "newOwner",
          "type": "address"
        }
      ],
      "name": "transferOwnership",
      "outputs": [],
      "stateMutability": "nonpayable",
      "type": "function"
    },
    {
      "inputs": [
        {
          "internalType": "address",
          "name": "newImplementation",
          "type": "address"
        }
      ],
      "name": "upgradeTo",
      "outputs": [],
      "stateMutability": "nonpayable",
      "type": "function"
    },
    {
      "inputs": [
        {
          "internalType": "address",
          "name": "newImplementation",
          "type": "address"
        },
        {
          "internalType": "bytes",
          "name": "data",
          "type": "bytes"
        }
      ],
      "name": "upgradeToAndCall",
      "outputs": [],
      "stateMutability": "payable",
      "type": "function"
    }
  ],
  "bytecode": "0x60a06040523060601b60805234801561001757600080fd5b5060805160601c61220c61004b60003960008181610761015281816107a10152818161082a015261086a015261220c6000f3fe6080604052600436106100e85760003560e01c8063742f0a901161008a57806392083b911161005957806392083b9114610226578063be643f0614610239578063c78f19f91461024e578063f2fde38b1461027257600080fd5b8063742f0a90146101b65780637c726b69146101c95780638129fc1c146101e95780638da5cb5b146101fe57600080fd5b80633659cfe6116100c65780633659cfe6146101595780634f1ef286146101795780636502096a1461018c578063715018a6146101a157600080fd5b80631066c71e146100ed578063172d3d701461012257806325135cbf14610137575b600080fd5b3480156100f957600080fd5b5061010d610108366004611e4d565b610292565b60405190151581526020015b60405180910390f35b610135610130366004611cf4565b6102bc565b005b34801561014357600080fd5b5061014c610534565b6040516101199190611ef1565b34801561016557600080fd5b50610135610174366004611cda565b610756565b610135610187366004611d2f565b61081f565b34801561019857600080fd5b5061014c6108d9565b3480156101ad57600080fd5b50610135610b02565b6101356101c4366004611e7d565b610b38565b3480156101d557600080fd5b506101356101e4366004611e4d565b610f6d565b3480156101f557600080fd5b50610135610f9c565b34801561020a57600080fd5b506065546040516001600160a01b039091168152602001610119565b610135610234366004611dec565b611081565b34801561024557600080fd5b5061014c6114a3565b34801561025a57600080fd5b5061026460fe5481565b604051908152602001610119565b34801561027e57600080fd5b5061013561028d366004611cda565b6116cc565b60008181526101006020526040812054156102af57506001919050565b506000919050565b919050565b600260015414156103145760405162461bcd60e51b815260206004820152601f60248201527f5265656e7472616e637947756172643a207265656e7472616e742063616c6c0060448201526064015b60405180910390fd5b60026001819055600082815261010060205260409081902060088101549281015460099091015491516323b872dd60e01b815290916001600160a01b0390811691908716906323b872dd9061037190309085908790600401611ecd565b600060405180830381600087803b15801561038b57600080fd5b505af115801561039f573d6000803e3d6000fd5b50505060008581526101006020526040908190206003015490516323b872dd60e01b81526001600160a01b0388811693506323b872dd926103ea923092909116908890600401611ecd565b602060405180830381600087803b15801561040457600080fd5b505af1158015610418573d6000803e3d6000fd5b505050506040513d601f19601f8201168201806040525081019061043c9190611e2d565b50600084815261010060205260409020600401805460ff60a01b1933166001600160a81b031990911617600160a01b17905561047c60fc80546001019055565b600084815261010060205260408082206003015460fe5491516001600160a01b0390911691908381818185875af1925050503d80600081146104da576040519150601f19603f3d011682016040523d82523d6000602084013e6104df565b606091505b50509050806105275760405162461bcd60e51b81526020600482015260146024820152732330b4b632b2103a379039b2b7321022ba3432b960611b604482015260640161030b565b5050600180555050505050565b6060600061054160fb5490565b9050600061054e60fc5490565b60fb5461055b9190612121565b90506000808267ffffffffffffffff81111561058757634e487b7160e01b600052604160045260246000fd5b6040519080825280602002602001820160405280156105c057816020015b6105ad611c3a565b8152602001906001900390816105a55790505b50905060005b8481101561074d576000610100816105df846001612109565b81526020810191909152604001600020600401546001600160a01b03161480156106355750336101006000610615846001612109565b81526020810191909152604001600020600301546001600160a01b031614155b1561073b57610100600061064a836001612109565b815260208082019290925260409081016000208151610180810183528154815260018201546001600160a01b03908116948201949094526002820154928101929092526003810154831660608301526004810154808416608084015260ff600160a01b82048116151560a0850152600160a81b90910416151560c0830152600581015460e083015260068101546101008301526007810154610120830152600881015461014083015260090154909116610160820152825183908590811061072257634e487b7160e01b600052603260045260246000fd5b6020908102919091010152610738600184612109565b92505b8061074581612168565b9150506105c6565b50949350505050565b306001600160a01b037f000000000000000000000000000000000000000000000000000000000000000016141561079f5760405162461bcd60e51b815260040161030b90611ff1565b7f00000000000000000000000000000000000000000000000000000000000000006001600160a01b03166107d1611764565b6001600160a01b0316146107f75760405162461bcd60e51b815260040161030b9061203d565b61080081611792565b6040805160008082526020820190925261081c918391906117bc565b50565b306001600160a01b037f00000000000000000000000000000000000000000000000000000000000000001614156108685760405162461bcd60e51b815260040161030b90611ff1565b7f00000000000000000000000000000000000000000000000000000000000000006001600160a01b031661089a611764565b6001600160a01b0316146108c05760405162461bcd60e51b815260040161030b9061203d565b6108c982611792565b6108d5828260016117bc565b5050565b606060006108e660fb5490565b905060008060005b8381101561094a57336101006000610907846001612109565b81526020810191909152604001600020600401546001600160a01b0316141561093857610935600184612109565b92505b8061094281612168565b9150506108ee565b5060008267ffffffffffffffff81111561097457634e487b7160e01b600052604160045260246000fd5b6040519080825280602002602001820160405280156109ad57816020015b61099a611c3a565b8152602001906001900390816109925790505b50905060005b8481101561074d573361010060006109cc846001612109565b81526020810191909152604001600020600401546001600160a01b03161415610af05761010060006109ff836001612109565b815260208082019290925260409081016000208151610180810183528154815260018201546001600160a01b03908116948201949094526002820154928101929092526003810154831660608301526004810154808416608084015260ff600160a01b82048116151560a0850152600160a81b90910416151560c0830152600581015460e0830152600681015461010083015260078101546101208301526008810154610140830152600901549091166101608201528251839085908110610ad757634e487b7160e01b600052603260045260246000fd5b6020908102919091010152610aed600184612109565b92505b80610afa81612168565b9150506109b3565b6065546001600160a01b03163314610b2c5760405162461bcd60e51b815260040161030b90612089565b610b366000611907565b565b60008281526101006020526040902054610b855760405162461bcd60e51b815260206004820152600e60248201526d1a5d195b481b9bdd08199bdd5b9960921b604482015260640161030b565b604051636eb1769f60e11b815233600482015230602482015283906001600160a01b0383169063dd62ed3e9060440160206040518083038186803b158015610bcc57600080fd5b505afa158015610be0573d6000803e3d6000fd5b505050506040513d601f19601f82011682018060405250810190610c049190611e65565b1015610c525760405162461bcd60e51b815260206004820152601760248201527f646f6e74206861766520656e6f7567687420546f6b656e000000000000000000604482015260640161030b565b60008281526101006020526040812060088101546005909101549091610c788383611959565b60008681526101006020526040902060070154909150428111610cdd5760405162461bcd60e51b815260206004820152601760248201527f61756374696f6e2068616420616c726561647920656e64000000000000000000604482015260640161030b565b818711610d525760405162461bcd60e51b815260206004820152603e60248201527f63757272656e74207072696365206d7573742067726561746572207468616e2060448201527f70726576696f757320707269636520706c757320707269636520737465700000606482015260840161030b565b6040516370a0823160e01b815233600482015284906001600160a01b038716906370a082319060240160206040518083038186803b158015610d9357600080fd5b505afa158015610da7573d6000803e3d6000fd5b505050506040513d601f19601f82011682018060405250810190610dcb9190611e65565b1015610dd657600080fd5b600086815261010060205260409020600901546001600160a01b031615610e795760405163a9059cbb60e01b8152336004820152602481018590526001600160a01b0386169063a9059cbb90604401602060405180830381600087803b158015610e3f57600080fd5b505af1158015610e53573d6000803e3d6000fd5b505050506040513d601f19601f82011682018060405250810190610e779190611e2d565b505b6040516323b872dd60e01b81526001600160a01b038616906323b872dd90610ea990339030908c90600401611ecd565b602060405180830381600087803b158015610ec357600080fd5b505af1158015610ed7573d6000803e3d6000fd5b505050506040513d601f19601f82011682018060405250810190610efb9190611e2d565b5060008681526101006020908152604091829020600881018a905560090180546001600160a01b03191633908117909155825190815290810184905287917f27b0dfddf394dae25343cc5c589895a5208a50cd6a196883a7a019b2ef9ac0dd910160405180910390a250505050505050565b6065546001600160a01b03163314610f975760405162461bcd60e51b815260040161030b90612089565b60fe55565b600054610100900460ff16610fb75760005460ff1615610fbb565b303b155b61101e5760405162461bcd60e51b815260206004820152602e60248201527f496e697469616c697a61626c653a20636f6e747261637420697320616c72656160448201526d191e481a5b9a5d1a585b1a5e995960921b606482015260840161030b565b600054610100900460ff16158015611040576000805461ffff19166101011790555b61104861196c565b6110506119a3565b60fd80546001600160a01b031916331790556658d15e1762800060fe55801561081c576000805461ff001916905550565b600260015414156110d45760405162461bcd60e51b815260206004820152601f60248201527f5265656e7472616e637947756172643a207265656e7472616e742063616c6c00604482015260640161030b565b6002600155826111305760405162461bcd60e51b815260206004820152602160248201527f70726963652073746570206d7573742062652067726561746572207468616e206044820152600360fc1b606482015260840161030b565b4282116111895760405162461bcd60e51b815260206004820152602160248201527f656e642074696d65206d7573742062652067726561746572207468616e206e6f6044820152607760f81b606482015260840161030b565b600081116111e55760405162461bcd60e51b815260206004820152602360248201527f6c6f77657374207072696365206d75737420626520677265617465722074686160448201526206e20360ec1b606482015260840161030b565b6111f360fb80546001019055565b60006111fe60fb5490565b9050604051806101800160405280828152602001876001600160a01b03168152602001868152602001336001600160a01b0316815260200160006001600160a01b0316815260200160001515815260200160011515815260200185815260200183815260200184815260200183815260200160006001600160a01b031681525061010060008381526020019081526020016000206000820151816000015560208201518160010160006101000a8154816001600160a01b0302191690836001600160a01b031602179055506040820151816002015560608201518160030160006101000a8154816001600160a01b0302191690836001600160a01b0316021790555060808201518160040160006101000a8154816001600160a01b0302191690836001600160a01b0316021790555060a08201518160040160146101000a81548160ff02191690831515021790555060c08201518160040160156101000a81548160ff02191690831515021790555060e082015181600501556101008201518160060155610120820151816007015561014082015181600801556101608201518160090160006101000a8154816001600160a01b0302191690836001600160a01b03160217905550905050856001600160a01b03166323b872dd3330886040518463ffffffff1660e01b81526004016113f993929190611ecd565b600060405180830381600087803b15801561141357600080fd5b505af1158015611427573d6000803e3d6000fd5b50506040805133815260006020820181905281830152600160608201526080810188905260a0810186905260c0810187905290518893506001600160a01b038a16925084917ff4ec16769b27307e71ed6c40b69b9f3e4d58a51a464fcb982ef8b76e9adb125f919081900360e00190a450506001805550505050565b606060006114b060fb5490565b905060008060005b83811015611514573361010060006114d1846001612109565b81526020810191909152604001600020600301546001600160a01b03161415611502576114ff600184612109565b92505b8061150c81612168565b9150506114b8565b5060008267ffffffffffffffff81111561153e57634e487b7160e01b600052604160045260246000fd5b60405190808252806020026020018201604052801561157757816020015b611564611c3a565b81526020019060019003908161155c5790505b50905060005b8481101561074d57336101006000611596846001612109565b81526020810191909152604001600020600301546001600160a01b031614156116ba5761010060006115c9836001612109565b815260208082019290925260409081016000208151610180810183528154815260018201546001600160a01b03908116948201949094526002820154928101929092526003810154831660608301526004810154808416608084015260ff600160a01b82048116151560a0850152600160a81b90910416151560c0830152600581015460e08301526006810154610100830152600781015461012083015260088101546101408301526009015490911661016082015282518390859081106116a157634e487b7160e01b600052603260045260246000fd5b60209081029190910101526116b7600184612109565b92505b806116c481612168565b91505061157d565b6065546001600160a01b031633146116f65760405162461bcd60e51b815260040161030b90612089565b6001600160a01b03811661175b5760405162461bcd60e51b815260206004820152602660248201527f4f776e61626c653a206e6577206f776e657220697320746865207a65726f206160448201526564647265737360d01b606482015260840161030b565b61081c81611907565b7f360894a13ba1a3210667c828492db98dca3e2076cc3735a920a3ca505d382bbc546001600160a01b031690565b6065546001600160a01b0316331461081c5760405162461bcd60e51b815260040161030b90612089565b60006117c6611764565b90506117d1846119da565b6000835111806117de5750815b156117ef576117ed8484611a7f565b505b7f4910fdfa16fed3260ed0e7147f7cc6da11a60208b5b9406d12a635614ffd9143805460ff1661190057805460ff191660011781556040516001600160a01b038316602482015261186e90869060440160408051601f198184030181529190526020810180516001600160e01b0316631b2ce7f360e11b179052611a7f565b50805460ff1916815561187f611764565b6001600160a01b0316826001600160a01b0316146118f75760405162461bcd60e51b815260206004820152602f60248201527f45524331393637557067726164653a207570677261646520627265616b73206660448201526e75727468657220757067726164657360881b606482015260840161030b565b61190085611b6a565b5050505050565b606580546001600160a01b038381166001600160a01b0319831681179093556040519116919082907f8be0079c531659141344cd1fd0a4f28419497f9722a3daafe3b4186f6b6457e090600090a35050565b60006119658284612109565b9392505050565b600054610100900460ff166119935760405162461bcd60e51b815260040161030b906120be565b61199b611baa565b610b36611bd1565b600054610100900460ff166119ca5760405162461bcd60e51b815260040161030b906120be565b6119d2611baa565b610b36611baa565b803b611a3e5760405162461bcd60e51b815260206004820152602d60248201527f455243313936373a206e657720696d706c656d656e746174696f6e206973206e60448201526c1bdd08184818dbdb9d1c9858dd609a1b606482015260840161030b565b7f360894a13ba1a3210667c828492db98dca3e2076cc3735a920a3ca505d382bbc80546001600160a01b0319166001600160a01b0392909216919091179055565b6060823b611ade5760405162461bcd60e51b815260206004820152602660248201527f416464726573733a2064656c65676174652063616c6c20746f206e6f6e2d636f6044820152651b9d1c9858dd60d21b606482015260840161030b565b600080846001600160a01b031684604051611af99190611eb1565b600060405180830381855af49150503d8060008114611b34576040519150601f19603f3d011682016040523d82523d6000602084013e611b39565b606091505b5091509150611b6182826040518060600160405280602781526020016121b060279139611c01565b95945050505050565b611b73816119da565b6040516001600160a01b038216907fbc7cd75a20ee27fd9adebab32041f755214dbc6bffa90cc0225b39da2e5c2d3b90600090a250565b600054610100900460ff16610b365760405162461bcd60e51b815260040161030b906120be565b600054610100900460ff16611bf85760405162461bcd60e51b815260040161030b906120be565b610b3633611907565b60608315611c10575081611965565b825115611c205782518084602001fd5b8160405162461bcd60e51b815260040161030b9190611fbe565b6040518061018001604052806000815260200160006001600160a01b031681526020016000815260200160006001600160a01b0316815260200160006001600160a01b031681526020016000151581526020016000151581526020016000815260200160008152602001600081526020016000815260200160006001600160a01b031681525090565b80356001600160a01b03811681146102b757600080fd5b600060208284031215611ceb578081fd5b61196582611cc3565b600080600060608486031215611d08578182fd5b611d1184611cc3565b9250611d1f60208501611cc3565b9150604084013590509250925092565b60008060408385031215611d41578182fd5b611d4a83611cc3565b9150602083013567ffffffffffffffff80821115611d66578283fd5b818501915085601f830112611d79578283fd5b813581811115611d8b57611d8b612199565b604051601f8201601f19908116603f01168101908382118183101715611db357611db3612199565b81604052828152886020848701011115611dcb578586fd5b82602086016020830137856020848301015280955050505050509250929050565b600080600080600060a08688031215611e03578081fd5b611e0c86611cc3565b97602087013597506040870135966060810135965060800135945092505050565b600060208284031215611e3e578081fd5b81518015158114611965578182fd5b600060208284031215611e5e578081fd5b5035919050565b600060208284031215611e76578081fd5b5051919050565b600080600060608486031215611e91578283fd5b8335925060208401359150611ea860408501611cc3565b90509250925092565b60008251611ec3818460208701612138565b9190910192915050565b6001600160a01b039384168152919092166020820152604081019190915260600190565b602080825282518282018190526000919060409081850190868401855b82811015611fb157815180518552868101516001600160a01b0390811688870152868201518787015260608083015182169087015260808083015182169087015260a08083015115159087015260c08083015115159087015260e080830151908701526101008083015190870152610120808301519087015261014080830151908701526101609182015116908501526101809093019290850190600101611f0e565b5091979650505050505050565b6020815260008251806020840152611fdd816040850160208701612138565b601f01601f19169190910160400192915050565b6020808252602c908201527f46756e6374696f6e206d7573742062652063616c6c6564207468726f7567682060408201526b19195b1959d85d1958d85b1b60a21b606082015260800190565b6020808252602c908201527f46756e6374696f6e206d7573742062652063616c6c6564207468726f7567682060408201526b6163746976652070726f787960a01b606082015260800190565b6020808252818101527f4f776e61626c653a2063616c6c6572206973206e6f7420746865206f776e6572604082015260600190565b6020808252602b908201527f496e697469616c697a61626c653a20636f6e7472616374206973206e6f74206960408201526a6e697469616c697a696e6760a81b606082015260800190565b6000821982111561211c5761211c612183565b500190565b60008282101561213357612133612183565b500390565b60005b8381101561215357818101518382015260200161213b565b83811115612162576000848401525b50505050565b600060001982141561217c5761217c612183565b5060010190565b634e487b7160e01b600052601160045260246000fd5b634e487b7160e01b600052604160045260246000fdfe416464726573733a206c6f772d6c6576656c2064656c65676174652063616c6c206661696c6564a2646970667358221220b809a3a270dd7fa1a190f8a507a74b523dc8c82b8632b930b6a624101c0af94564736f6c63430008040033",
  "linkReferences": {},
  "deployedLinkReferences": {}
}