{
  "_format": "hh-sol-artifact-1",
  "contractName": "NFTMarket",
  "sourceName": "contracts/NFTMarket.sol",
  "abi": [
    {
      "inputs": [],
      "stateMutability": "nonpayable",
      "type": "constructor"
    },
    {
      "anonymous": false,
      "inputs": [
        {
          "indexed": true,
          "internalType": "uint256",
          "name": "itemId",
          "type": "uint256"
        },
        {
          "indexed": true,
          "internalType": "address",
          "name": "nftContract",
          "type": "address"
        },
        {
          "indexed": true,
          "internalType": "uint256",
          "name": "tokenId",
          "type": "uint256"
        },
        {
          "indexed": false,
          "internalType": "address",
          "name": "seller",
          "type": "address"
        },
        {
          "indexed": false,
          "internalType": "address",
          "name": "owner",
          "type": "address"
        },
        {
          "indexed": false,
          "internalType": "uint256",
          "name": "price",
          "type": "uint256"
        },
        {
          "indexed": false,
          "internalType": "bool",
          "name": "isSold",
          "type": "bool"
        }
      ],
      "name": "MarketItemCreate",
      "type": "event"
    },
    {
      "inputs": [
        {
          "internalType": "address",
          "name": "nftContract",
          "type": "address"
        },
        {
          "internalType": "uint256",
          "name": "tokenId",
          "type": "uint256"
        },
        {
          "internalType": "uint256",
          "name": "price",
          "type": "uint256"
        }
      ],
      "name": "createMarketItem",
      "outputs": [],
      "stateMutability": "payable",
      "type": "function"
    },
    {
      "inputs": [],
      "name": "getAllUnsoldItems",
      "outputs": [
        {
          "components": [
            {
              "internalType": "uint256",
              "name": "itemId",
              "type": "uint256"
            },
            {
              "internalType": "address",
              "name": "nftContract",
              "type": "address"
            },
            {
              "internalType": "uint256",
              "name": "tokenId",
              "type": "uint256"
            },
            {
              "internalType": "address payable",
              "name": "seller",
              "type": "address"
            },
            {
              "internalType": "address payable",
              "name": "owner",
              "type": "address"
            },
            {
              "internalType": "uint256",
              "name": "price",
              "type": "uint256"
            },
            {
              "internalType": "bool",
              "name": "isSold",
              "type": "bool"
            }
          ],
          "internalType": "struct NFTMarket.MarketItem[]",
          "name": "",
          "type": "tuple[]"
        }
      ],
      "stateMutability": "view",
      "type": "function"
    },
    {
      "inputs": [],
      "name": "getListingPrice",
      "outputs": [
        {
          "internalType": "uint256",
          "name": "",
          "type": "uint256"
        }
      ],
      "stateMutability": "view",
      "type": "function"
    },
    {
      "inputs": [],
      "name": "getUserCreateItems",
      "outputs": [
        {
          "components": [
            {
              "internalType": "uint256",
              "name": "itemId",
              "type": "uint256"
            },
            {
              "internalType": "address",
              "name": "nftContract",
              "type": "address"
            },
            {
              "internalType": "uint256",
              "name": "tokenId",
              "type": "uint256"
            },
            {
              "internalType": "address payable",
              "name": "seller",
              "type": "address"
            },
            {
              "internalType": "address payable",
              "name": "owner",
              "type": "address"
            },
            {
              "internalType": "uint256",
              "name": "price",
              "type": "uint256"
            },
            {
              "internalType": "bool",
              "name": "isSold",
              "type": "bool"
            }
          ],
          "internalType": "struct NFTMarket.MarketItem[]",
          "name": "",
          "type": "tuple[]"
        },
        {
          "internalType": "address",
          "name": "",
          "type": "address"
        }
      ],
      "stateMutability": "view",
      "type": "function"
    },
    {
      "inputs": [],
      "name": "getUserItems",
      "outputs": [
        {
          "components": [
            {
              "internalType": "uint256",
              "name": "itemId",
              "type": "uint256"
            },
            {
              "internalType": "address",
              "name": "nftContract",
              "type": "address"
            },
            {
              "internalType": "uint256",
              "name": "tokenId",
              "type": "uint256"
            },
            {
              "internalType": "address payable",
              "name": "seller",
              "type": "address"
            },
            {
              "internalType": "address payable",
              "name": "owner",
              "type": "address"
            },
            {
              "internalType": "uint256",
              "name": "price",
              "type": "uint256"
            },
            {
              "internalType": "bool",
              "name": "isSold",
              "type": "bool"
            }
          ],
          "internalType": "struct NFTMarket.MarketItem[]",
          "name": "",
          "type": "tuple[]"
        },
        {
          "internalType": "address",
          "name": "",
          "type": "address"
        }
      ],
      "stateMutability": "view",
      "type": "function"
    },
    {
      "inputs": [
        {
          "internalType": "address",
          "name": "nftContract",
          "type": "address"
        },
        {
          "internalType": "uint256",
          "name": "itemId",
          "type": "uint256"
        }
      ],
      "name": "saleMarketItem",
      "outputs": [],
      "stateMutability": "payable",
      "type": "function"
    }
  ],
  "bytecode": "0x60806040526658d15e1762800060045534801561001b57600080fd5b506001600055600380546001600160a01b03191633179055610d3a806100426000396000f3fe6080604052600436106100555760003560e01c806312e855851461005a57806325135cbf1461007d578063517a54a51461009f57806358eb2df5146100b45780636502096a146100c7578063be643f06146100ea575b600080fd5b34801561006657600080fd5b506004546040519081526020015b60405180910390f35b34801561008957600080fd5b506100926100ff565b6040516100749190610c60565b6100b26100ad366004610b7b565b6102a6565b005b6100b26100c2366004610ba4565b6104b0565b3480156100d357600080fd5b506100dc61074b565b604051610074929190610c7a565b3480156100f657600080fd5b506100dc61093d565b6060600061010c60015490565b9050600061011960025490565b6001546101269190610cbc565b90506000808267ffffffffffffffff81111561015257634e487b7160e01b600052604160045260246000fd5b60405190808252806020026020018201604052801561018b57816020015b610178610b23565b8152602001906001900390816101705790505b50905060005b8481101561029d5760006005816101a9846001610ca4565b81526020810191909152604001600020600401546001600160a01b0316141561028b57600560006101db836001610ca4565b81526020808201929092526040908101600020815160e0810183528154815260018201546001600160a01b039081169482019490945260028201549281019290925260038101548316606083015260048101549092166080820152600582015460a082015260069091015460ff16151560c0820152825183908590811061027257634e487b7160e01b600052603260045260246000fd5b6020908102919091010152610288600184610ca4565b92505b8061029581610cd3565b915050610191565b50949350505050565b600260005414156102fe5760405162461bcd60e51b815260206004820152601f60248201527f5265656e7472616e637947756172643a207265656e7472616e742063616c6c0060448201526064015b60405180910390fd5b600260008181558281526005602081905260409091209081015491015434821461037b5760405162461bcd60e51b815260206004820152602860248201527f506c73207375626d6974207468652061736b696e6720707269636520666f7220604482015267746865206974656d60c01b60648201526084016102f5565b6000838152600560205260408082206003015490516001600160a01b03909116913480156108fc02929091818181858888f193505050501580156103c3573d6000803e3d6000fd5b506040516323b872dd60e01b8152306004820152336024820152604481018290526001600160a01b038516906323b872dd90606401600060405180830381600087803b15801561041257600080fd5b505af1158015610426573d6000803e3d6000fd5b50505060008481526005602052604090206004810180546001600160a01b03191633179055600601805460ff1916600117905550610468600280546001019055565b6003546004546040516001600160a01b039092169181156108fc0291906000818181858888f193505050501580156104a4573d6000803e3d6000fd5b50506001600055505050565b600260005414156105035760405162461bcd60e51b815260206004820152601f60248201527f5265656e7472616e637947756172643a207265656e7472616e742063616c6c0060448201526064016102f5565b6002600055806105555760405162461bcd60e51b815260206004820152601c60248201527f7072696365206d757374206265206174206c656173742031207765690000000060448201526064016102f5565b60045434146105b25760405162461bcd60e51b815260206004820152602360248201527f5072696365206d75737420626520657175616c20746f206c697374696e67507260448201526269636560e81b60648201526084016102f5565b6105c0600180546001019055565b60006105cb60015490565b6040805160e0810182528281526001600160a01b0387811660208084018281528486018a8152336060870181815260006080890181815260a08a018e815260c08b018381528d8452600598899052928c90209a518b55955160018b018054918b166001600160a01b0319928316179055945160028b0155915160038a018054918a1691861691909117905590516004808a01805492909916919094161790965591519286019290925592516006909401805494151560ff199095169490941790935592516323b872dd60e01b81529182015230602482015260448101869052919250906323b872dd90606401600060405180830381600087803b1580156106d157600080fd5b505af11580156106e5573d6000803e3d6000fd5b505060408051338152600060208201819052818301879052606082015290518693506001600160a01b038816925084917f231223c83770ad2a129fcbd12ddc76005eaca0d1a2c25d225562d3939f44b191919081900360800190a4505060016000555050565b606060008061075960015490565b905060008060005b838110156107bc573360056000610779846001610ca4565b81526020810191909152604001600020600401546001600160a01b031614156107aa576107a7600184610ca4565b92505b806107b481610cd3565b915050610761565b5060008267ffffffffffffffff8111156107e657634e487b7160e01b600052604160045260246000fd5b60405190808252806020026020018201604052801561081f57816020015b61080c610b23565b8152602001906001900390816108045790505b50905060005b8481101561093157336005600061083d846001610ca4565b81526020810191909152604001600020600401546001600160a01b0316141561091f576005600061086f836001610ca4565b81526020808201929092526040908101600020815160e0810183528154815260018201546001600160a01b039081169482019490945260028201549281019290925260038101548316606083015260048101549092166080820152600582015460a082015260069091015460ff16151560c0820152825183908590811061090657634e487b7160e01b600052603260045260246000fd5b602090810291909101015261091c600184610ca4565b92505b8061092981610cd3565b915050610825565b50953295509350505050565b606060008061094b60015490565b905060008060005b838110156109ae57336005600061096b846001610ca4565b81526020810191909152604001600020600301546001600160a01b0316141561099c57610999600184610ca4565b92505b806109a681610cd3565b915050610953565b5060008267ffffffffffffffff8111156109d857634e487b7160e01b600052604160045260246000fd5b604051908082528060200260200182016040528015610a1157816020015b6109fe610b23565b8152602001906001900390816109f65790505b50905060005b84811015610931573360056000610a2f846001610ca4565b81526020810191909152604001600020600301546001600160a01b03161415610b115760056000610a61836001610ca4565b81526020808201929092526040908101600020815160e0810183528154815260018201546001600160a01b039081169482019490945260028201549281019290925260038101548316606083015260048101549092166080820152600582015460a082015260069091015460ff16151560c08201528251839085908110610af857634e487b7160e01b600052603260045260246000fd5b6020908102919091010152610b0e600184610ca4565b92505b80610b1b81610cd3565b915050610a17565b6040805160e081018252600080825260208201819052918101829052606081018290526080810182905260a0810182905260c081019190915290565b80356001600160a01b0381168114610b7657600080fd5b919050565b60008060408385031215610b8d578182fd5b610b9683610b5f565b946020939093013593505050565b600080600060608486031215610bb8578081fd5b610bc184610b5f565b95602085013595506040909401359392505050565b6000815180845260208085019450808401835b83811015610c5557815180518852838101516001600160a01b03908116858a0152604080830151908a01526060808301518216908a01526080808301519091169089015260a0808201519089015260c09081015115159088015260e09096019590820190600101610be9565b509495945050505050565b602081526000610c736020830184610bd6565b9392505050565b604081526000610c8d6040830185610bd6565b905060018060a01b03831660208301529392505050565b60008219821115610cb757610cb7610cee565b500190565b600082821015610cce57610cce610cee565b500390565b6000600019821415610ce757610ce7610cee565b5060010190565b634e487b7160e01b600052601160045260246000fdfea26469706673582212209d8c34781b58f82dd981e599725243a1d086d2f0b61517dd5cb17bb3f5cf91e364736f6c63430008040033",
  "linkReferences": {},
  "deployedLinkReferences": {}
}