{
  "_format": "hh-sol-artifact-1",
  "contractName": "NFTMarket",
  "sourceName": "contracts/NFTMarket.sol",
  "abi": [
    {
      "anonymous": false,
      "inputs": [
        {
          "indexed": true,
          "internalType": "uint256",
          "name": "itemId",
          "type": "uint256"
        },
        {
          "indexed": true,
          "internalType": "address",
          "name": "nftContract",
          "type": "address"
        },
        {
          "indexed": true,
          "internalType": "uint256",
          "name": "tokenId",
          "type": "uint256"
        },
        {
          "indexed": false,
          "internalType": "address",
          "name": "seller",
          "type": "address"
        },
        {
          "indexed": false,
          "internalType": "address",
          "name": "owner",
          "type": "address"
        },
        {
          "indexed": false,
          "internalType": "uint256",
          "name": "price",
          "type": "uint256"
        },
        {
          "indexed": false,
          "internalType": "bool",
          "name": "isSold",
          "type": "bool"
        },
        {
          "indexed": false,
          "internalType": "bool",
          "name": "isPublished",
          "type": "bool"
        }
      ],
      "name": "MarketItemCreate",
      "type": "event"
    },
    {
      "inputs": [
        {
          "internalType": "address",
          "name": "nftContract",
          "type": "address"
        },
        {
          "internalType": "uint256",
          "name": "tokenId",
          "type": "uint256"
        },
        {
          "internalType": "uint256",
          "name": "price",
          "type": "uint256"
        }
      ],
      "name": "createMarketItem",
      "outputs": [],
      "stateMutability": "payable",
      "type": "function"
    },
    {
      "inputs": [],
      "name": "getAllUnsoldItems",
      "outputs": [
        {
          "components": [
            {
              "internalType": "uint256",
              "name": "itemId",
              "type": "uint256"
            },
            {
              "internalType": "address",
              "name": "nftContract",
              "type": "address"
            },
            {
              "internalType": "uint256",
              "name": "tokenId",
              "type": "uint256"
            },
            {
              "internalType": "address payable",
              "name": "seller",
              "type": "address"
            },
            {
              "internalType": "address payable",
              "name": "owner",
              "type": "address"
            },
            {
              "internalType": "uint256",
              "name": "price",
              "type": "uint256"
            },
            {
              "internalType": "bool",
              "name": "isSold",
              "type": "bool"
            },
            {
              "internalType": "bool",
              "name": "isPublished",
              "type": "bool"
            }
          ],
          "internalType": "struct NFTMarket.MarketItem[]",
          "name": "",
          "type": "tuple[]"
        }
      ],
      "stateMutability": "view",
      "type": "function"
    },
    {
      "inputs": [],
      "name": "getListingPrice",
      "outputs": [
        {
          "internalType": "uint256",
          "name": "",
          "type": "uint256"
        }
      ],
      "stateMutability": "view",
      "type": "function"
    },
    {
      "inputs": [],
      "name": "getUserCreateItems",
      "outputs": [
        {
          "components": [
            {
              "internalType": "uint256",
              "name": "itemId",
              "type": "uint256"
            },
            {
              "internalType": "address",
              "name": "nftContract",
              "type": "address"
            },
            {
              "internalType": "uint256",
              "name": "tokenId",
              "type": "uint256"
            },
            {
              "internalType": "address payable",
              "name": "seller",
              "type": "address"
            },
            {
              "internalType": "address payable",
              "name": "owner",
              "type": "address"
            },
            {
              "internalType": "uint256",
              "name": "price",
              "type": "uint256"
            },
            {
              "internalType": "bool",
              "name": "isSold",
              "type": "bool"
            },
            {
              "internalType": "bool",
              "name": "isPublished",
              "type": "bool"
            }
          ],
          "internalType": "struct NFTMarket.MarketItem[]",
          "name": "",
          "type": "tuple[]"
        },
        {
          "internalType": "address",
          "name": "",
          "type": "address"
        }
      ],
      "stateMutability": "view",
      "type": "function"
    },
    {
      "inputs": [],
      "name": "getUserItems",
      "outputs": [
        {
          "components": [
            {
              "internalType": "uint256",
              "name": "itemId",
              "type": "uint256"
            },
            {
              "internalType": "address",
              "name": "nftContract",
              "type": "address"
            },
            {
              "internalType": "uint256",
              "name": "tokenId",
              "type": "uint256"
            },
            {
              "internalType": "address payable",
              "name": "seller",
              "type": "address"
            },
            {
              "internalType": "address payable",
              "name": "owner",
              "type": "address"
            },
            {
              "internalType": "uint256",
              "name": "price",
              "type": "uint256"
            },
            {
              "internalType": "bool",
              "name": "isSold",
              "type": "bool"
            },
            {
              "internalType": "bool",
              "name": "isPublished",
              "type": "bool"
            }
          ],
          "internalType": "struct NFTMarket.MarketItem[]",
          "name": "",
          "type": "tuple[]"
        },
        {
          "internalType": "address",
          "name": "",
          "type": "address"
        }
      ],
      "stateMutability": "view",
      "type": "function"
    },
    {
      "inputs": [],
      "name": "initialize",
      "outputs": [],
      "stateMutability": "nonpayable",
      "type": "function"
    },
    {
      "inputs": [
        {
          "internalType": "uint256",
          "name": "id",
          "type": "uint256"
        }
      ],
      "name": "publicItem",
      "outputs": [
        {
          "internalType": "bool",
          "name": "",
          "type": "bool"
        }
      ],
      "stateMutability": "nonpayable",
      "type": "function"
    },
    {
      "inputs": [
        {
          "internalType": "address",
          "name": "nftContract",
          "type": "address"
        },
        {
          "internalType": "address",
          "name": "tokenContract",
          "type": "address"
        },
        {
          "internalType": "uint256",
          "name": "itemId",
          "type": "uint256"
        },
        {
          "internalType": "uint256",
          "name": "amount",
          "type": "uint256"
        }
      ],
      "name": "saleMarketItem",
      "outputs": [],
      "stateMutability": "payable",
      "type": "function"
    }
  ],
  "bytecode": "0x608060405234801561001057600080fd5b5061100e806100206000396000f3fe60806040526004361061007b5760003560e01c80636502096a1161004e5780636502096a146100ed5780638129fc1c14610110578063be643f0614610125578063d48fdc561461013a57600080fd5b806312e855851461008057806313c0d2eb146100a357806325135cbf146100b857806358eb2df5146100da575b600080fd5b34801561008c57600080fd5b506036546040519081526020015b60405180910390f35b6100b66100b1366004610df2565b610188565b005b3480156100c457600080fd5b506100cd610430565b60405161009a9190610f3b565b6100b66100e8366004610e33565b61061b565b3480156100f957600080fd5b506101026108d0565b60405161009a929190610f4e565b34801561011c57600080fd5b506100b6610acf565b34801561013157600080fd5b50610102610b9f565b34801561014657600080fd5b50610178610155366004610e8c565b6000908152603760205260409020600601805461ff001916610100179055600190565b604051901515815260200161009a565b600260015414156101e05760405162461bcd60e51b815260206004820152601f60248201527f5265656e7472616e637947756172643a207265656e7472616e742063616c6c0060448201526064015b60405180910390fd5b600260018190556000838152603760205260409020600581015491015482821461025d5760405162461bcd60e51b815260206004820152602860248201527f506c73207375626d6974207468652061736b696e6720707269636520666f7220604482015267746865206974656d60c01b60648201526084016101d7565b6000848152603760205260408082206003015490516001600160a01b03909116913480156108fc02929091818181858888f193505050501580156102a5573d6000803e3d6000fd5b506040516323b872dd60e01b8152306004820152336024820152604481018290526001600160a01b038716906323b872dd90606401600060405180830381600087803b1580156102f457600080fd5b505af1158015610308573d6000803e3d6000fd5b505050600085815260376020526040908190206003015490516323b872dd60e01b81523360048201526001600160a01b0391821660248201526044810186905290871691506323b872dd90606401602060405180830381600087803b15801561037057600080fd5b505af1158015610384573d6000803e3d6000fd5b505050506040513d601f19601f820116820180604052508101906103a89190610e65565b5060008481526037602052604090206004810180546001600160a01b03191633179055600601805460ff191660011790556103e7603480546001019055565b6035546036546040516001600160a01b039092169181156108fc0291906000818181858888f19350505050158015610423573d6000803e3d6000fd5b5050600180555050505050565b6060600061043d60335490565b9050600061044a60345490565b6033546104579190610f90565b90506000808267ffffffffffffffff81111561048357634e487b7160e01b600052604160045260246000fd5b6040519080825280602002602001820160405280156104bc57816020015b6104a9610d92565b8152602001906001900390816104a15790505b50905060005b848110156106125760006037816104da846001610f78565b81526020810191909152604001600020600401546001600160a01b031614801561052f5750336037600061050f846001610f78565b81526020810191909152604001600020600301546001600160a01b031614155b156106005760376000610543836001610f78565b81526020808201929092526040908101600020815161010080820184528254825260018301546001600160a01b039081169583019590955260028301549382019390935260038201548416606082015260048201549093166080840152600581015460a08401526006015460ff808216151560c085015291900416151560e082015282518390859081106105e757634e487b7160e01b600052603260045260246000fd5b60209081029190910101526105fd600184610f78565b92505b8061060a81610fa7565b9150506104c2565b50949350505050565b6002600154141561066e5760405162461bcd60e51b815260206004820152601f60248201527f5265656e7472616e637947756172643a207265656e7472616e742063616c6c0060448201526064016101d7565b6002600155806106c05760405162461bcd60e51b815260206004820152601c60248201527f7072696365206d757374206265206174206c656173742031207765690000000060448201526064016101d7565b603654341461071d5760405162461bcd60e51b815260206004820152602360248201527f5072696365206d75737420626520657175616c20746f206c697374696e67507260448201526269636560e81b60648201526084016101d7565b61072b603380546001019055565b600061073660335490565b6040805161010080820183528382526001600160a01b0388811660208085018281528587018b81523360608801818152600060808a0181815260a08b018f815260c08c0183815260e08d018481528f85526037909952928d90209b518c55955160018c0180546001600160a01b0319908116928c16929092179055945160028c0155915160038b0180548616918a1691909117905590516004808b0180549095169190981617909255915160058801555160069096018054925161ffff1990931696151561ff001916969096179115159094021790935592516323b872dd60e01b815292830152306024830152604482018690529192506323b872dd90606401600060405180830381600087803b15801561085057600080fd5b505af1158015610864573d6000803e3d6000fd5b50506040805133815260006020820181905281830187905260608201819052608082015290518693506001600160a01b038816925084917f80c798993dcfe4c3fa5cab62b251f0d8247b1b2ea3c7b6099f1ef96d73b6af84919081900360a00190a45050600180555050565b60606000806108de60335490565b905060008060005b838110156109415733603760006108fe846001610f78565b81526020810191909152604001600020600401546001600160a01b0316141561092f5761092c600184610f78565b92505b8061093981610fa7565b9150506108e6565b5060008267ffffffffffffffff81111561096b57634e487b7160e01b600052604160045260246000fd5b6040519080825280602002602001820160405280156109a457816020015b610991610d92565b8152602001906001900390816109895790505b50905060005b84811015610ac35733603760006109c2846001610f78565b81526020810191909152604001600020600401546001600160a01b03161415610ab157603760006109f4836001610f78565b81526020808201929092526040908101600020815161010080820184528254825260018301546001600160a01b039081169583019590955260028301549382019390935260038201548416606082015260048201549093166080840152600581015460a08401526006015460ff808216151560c085015291900416151560e08201528251839085908110610a9857634e487b7160e01b600052603260045260246000fd5b6020908102919091010152610aae600184610f78565b92505b80610abb81610fa7565b9150506109aa565b50953295509350505050565b600054610100900460ff1680610ae8575060005460ff16155b610b4b5760405162461bcd60e51b815260206004820152602e60248201527f496e697469616c697a61626c653a20636f6e747261637420697320616c72656160448201526d191e481a5b9a5d1a585b1a5e995960921b60648201526084016101d7565b600054610100900460ff16158015610b6d576000805461ffff19166101011790555b603580546001600160a01b031916331790556658d15e176280006036558015610b9c576000805461ff00191690555b50565b6060600080610bad60335490565b905060008060005b83811015610c10573360376000610bcd846001610f78565b81526020810191909152604001600020600301546001600160a01b03161415610bfe57610bfb600184610f78565b92505b80610c0881610fa7565b915050610bb5565b5060008267ffffffffffffffff811115610c3a57634e487b7160e01b600052604160045260246000fd5b604051908082528060200260200182016040528015610c7357816020015b610c60610d92565b815260200190600190039081610c585790505b50905060005b84811015610ac3573360376000610c91846001610f78565b81526020810191909152604001600020600301546001600160a01b03161415610d805760376000610cc3836001610f78565b81526020808201929092526040908101600020815161010080820184528254825260018301546001600160a01b039081169583019590955260028301549382019390935260038201548416606082015260048201549093166080840152600581015460a08401526006015460ff808216151560c085015291900416151560e08201528251839085908110610d6757634e487b7160e01b600052603260045260246000fd5b6020908102919091010152610d7d600184610f78565b92505b80610d8a81610fa7565b915050610c79565b6040805161010081018252600080825260208201819052918101829052606081018290526080810182905260a0810182905260c0810182905260e081019190915290565b80356001600160a01b0381168114610ded57600080fd5b919050565b60008060008060808587031215610e07578384fd5b610e1085610dd6565b9350610e1e60208601610dd6565b93969395505050506040820135916060013590565b600080600060608486031215610e47578283fd5b610e5084610dd6565b95602085013595506040909401359392505050565b600060208284031215610e76578081fd5b81518015158114610e85578182fd5b9392505050565b600060208284031215610e9d578081fd5b5035919050565b6000815180845260208085019450808401835b83811015610f3057815180518852838101516001600160a01b03908116858a0152604080830151908a01526060808301518216908a01526080808301519091169089015260a0808201519089015260c08082015115159089015260e0908101511515908801526101009096019590820190600101610eb7565b509495945050505050565b602081526000610e856020830184610ea4565b604081526000610f616040830185610ea4565b905060018060a01b03831660208301529392505050565b60008219821115610f8b57610f8b610fc2565b500190565b600082821015610fa257610fa2610fc2565b500390565b6000600019821415610fbb57610fbb610fc2565b5060010190565b634e487b7160e01b600052601160045260246000fdfea264697066735822122047919fb234715e282d612900f244d80fb4afe81fb6eb21ea2e8a180710f1c54d64736f6c63430008040033",
  "linkReferences": {},
  "deployedLinkReferences": {}
}