{
  "_format": "hh-sol-artifact-1",
  "contractName": "NFTMarket",
  "sourceName": "contracts/NFTMarket.sol",
  "abi": [
    {
      "anonymous": false,
      "inputs": [
        {
          "indexed": true,
          "internalType": "uint256",
          "name": "itemId",
          "type": "uint256"
        },
        {
          "indexed": true,
          "internalType": "address",
          "name": "nftContract",
          "type": "address"
        },
        {
          "indexed": true,
          "internalType": "uint256",
          "name": "tokenId",
          "type": "uint256"
        },
        {
          "indexed": false,
          "internalType": "address",
          "name": "seller",
          "type": "address"
        },
        {
          "indexed": false,
          "internalType": "address",
          "name": "owner",
          "type": "address"
        },
        {
          "indexed": false,
          "internalType": "uint256",
          "name": "price",
          "type": "uint256"
        },
        {
          "indexed": false,
          "internalType": "bool",
          "name": "isSold",
          "type": "bool"
        },
        {
          "indexed": false,
          "internalType": "bool",
          "name": "isPublished",
          "type": "bool"
        }
      ],
      "name": "MarketItemCreate",
      "type": "event"
    },
    {
      "anonymous": false,
      "inputs": [
        {
          "indexed": true,
          "internalType": "address",
          "name": "previousOwner",
          "type": "address"
        },
        {
          "indexed": true,
          "internalType": "address",
          "name": "newOwner",
          "type": "address"
        }
      ],
      "name": "OwnershipTransferred",
      "type": "event"
    },
    {
      "anonymous": false,
      "inputs": [
        {
          "indexed": true,
          "internalType": "uint256",
          "name": "itemId",
          "type": "uint256"
        },
        {
          "indexed": true,
          "internalType": "address",
          "name": "nftContract",
          "type": "address"
        },
        {
          "indexed": true,
          "internalType": "uint256",
          "name": "tokenId",
          "type": "uint256"
        },
        {
          "indexed": false,
          "internalType": "address",
          "name": "seller",
          "type": "address"
        },
        {
          "indexed": false,
          "internalType": "address",
          "name": "owner",
          "type": "address"
        },
        {
          "indexed": false,
          "internalType": "uint256",
          "name": "price",
          "type": "uint256"
        },
        {
          "indexed": false,
          "internalType": "bool",
          "name": "isSold",
          "type": "bool"
        },
        {
          "indexed": false,
          "internalType": "bool",
          "name": "isPublished",
          "type": "bool"
        }
      ],
      "name": "SaleMarketItem",
      "type": "event"
    },
    {
      "inputs": [
        {
          "internalType": "uint256",
          "name": "itemId",
          "type": "uint256"
        }
      ],
      "name": "checkExisting",
      "outputs": [
        {
          "internalType": "bool",
          "name": "",
          "type": "bool"
        }
      ],
      "stateMutability": "view",
      "type": "function"
    },
    {
      "inputs": [
        {
          "internalType": "address",
          "name": "nftContract",
          "type": "address"
        },
        {
          "internalType": "uint256",
          "name": "tokenId",
          "type": "uint256"
        },
        {
          "internalType": "uint256",
          "name": "price",
          "type": "uint256"
        }
      ],
      "name": "createMarketItem",
      "outputs": [],
      "stateMutability": "payable",
      "type": "function"
    },
    {
      "inputs": [],
      "name": "getAllUnsoldItems",
      "outputs": [
        {
          "components": [
            {
              "internalType": "uint256",
              "name": "itemId",
              "type": "uint256"
            },
            {
              "internalType": "address",
              "name": "nftContract",
              "type": "address"
            },
            {
              "internalType": "uint256",
              "name": "tokenId",
              "type": "uint256"
            },
            {
              "internalType": "address payable",
              "name": "seller",
              "type": "address"
            },
            {
              "internalType": "address payable",
              "name": "owner",
              "type": "address"
            },
            {
              "internalType": "uint256",
              "name": "price",
              "type": "uint256"
            },
            {
              "internalType": "bool",
              "name": "isSold",
              "type": "bool"
            },
            {
              "internalType": "bool",
              "name": "isPublished",
              "type": "bool"
            }
          ],
          "internalType": "struct NFTMarket.MarketItem[]",
          "name": "",
          "type": "tuple[]"
        }
      ],
      "stateMutability": "view",
      "type": "function"
    },
    {
      "inputs": [],
      "name": "getListingPrice",
      "outputs": [
        {
          "internalType": "uint256",
          "name": "",
          "type": "uint256"
        }
      ],
      "stateMutability": "view",
      "type": "function"
    },
    {
      "inputs": [],
      "name": "getUserCreateItems",
      "outputs": [
        {
          "components": [
            {
              "internalType": "uint256",
              "name": "itemId",
              "type": "uint256"
            },
            {
              "internalType": "address",
              "name": "nftContract",
              "type": "address"
            },
            {
              "internalType": "uint256",
              "name": "tokenId",
              "type": "uint256"
            },
            {
              "internalType": "address payable",
              "name": "seller",
              "type": "address"
            },
            {
              "internalType": "address payable",
              "name": "owner",
              "type": "address"
            },
            {
              "internalType": "uint256",
              "name": "price",
              "type": "uint256"
            },
            {
              "internalType": "bool",
              "name": "isSold",
              "type": "bool"
            },
            {
              "internalType": "bool",
              "name": "isPublished",
              "type": "bool"
            }
          ],
          "internalType": "struct NFTMarket.MarketItem[]",
          "name": "",
          "type": "tuple[]"
        }
      ],
      "stateMutability": "view",
      "type": "function"
    },
    {
      "inputs": [],
      "name": "getUserItems",
      "outputs": [
        {
          "components": [
            {
              "internalType": "uint256",
              "name": "itemId",
              "type": "uint256"
            },
            {
              "internalType": "address",
              "name": "nftContract",
              "type": "address"
            },
            {
              "internalType": "uint256",
              "name": "tokenId",
              "type": "uint256"
            },
            {
              "internalType": "address payable",
              "name": "seller",
              "type": "address"
            },
            {
              "internalType": "address payable",
              "name": "owner",
              "type": "address"
            },
            {
              "internalType": "uint256",
              "name": "price",
              "type": "uint256"
            },
            {
              "internalType": "bool",
              "name": "isSold",
              "type": "bool"
            },
            {
              "internalType": "bool",
              "name": "isPublished",
              "type": "bool"
            }
          ],
          "internalType": "struct NFTMarket.MarketItem[]",
          "name": "",
          "type": "tuple[]"
        }
      ],
      "stateMutability": "view",
      "type": "function"
    },
    {
      "inputs": [],
      "name": "initialize",
      "outputs": [],
      "stateMutability": "nonpayable",
      "type": "function"
    },
    {
      "inputs": [],
      "name": "listingPrice",
      "outputs": [
        {
          "internalType": "uint256",
          "name": "",
          "type": "uint256"
        }
      ],
      "stateMutability": "view",
      "type": "function"
    },
    {
      "inputs": [],
      "name": "owner",
      "outputs": [
        {
          "internalType": "address",
          "name": "",
          "type": "address"
        }
      ],
      "stateMutability": "view",
      "type": "function"
    },
    {
      "inputs": [],
      "name": "renounceOwnership",
      "outputs": [],
      "stateMutability": "nonpayable",
      "type": "function"
    },
    {
      "inputs": [
        {
          "internalType": "address",
          "name": "nftContract",
          "type": "address"
        },
        {
          "internalType": "address",
          "name": "tokenContract",
          "type": "address"
        },
        {
          "internalType": "uint256",
          "name": "itemId",
          "type": "uint256"
        },
        {
          "internalType": "uint256",
          "name": "amount",
          "type": "uint256"
        }
      ],
      "name": "saleMarketItem",
      "outputs": [],
      "stateMutability": "payable",
      "type": "function"
    },
    {
      "inputs": [
        {
          "internalType": "uint256",
          "name": "_listingPrice",
          "type": "uint256"
        }
      ],
      "name": "setListingPrice",
      "outputs": [],
      "stateMutability": "nonpayable",
      "type": "function"
    },
    {
      "inputs": [
        {
          "internalType": "address",
          "name": "newOwner",
          "type": "address"
        }
      ],
      "name": "transferOwnership",
      "outputs": [],
      "stateMutability": "nonpayable",
      "type": "function"
    }
  ],
  "bytecode": "0x608060405234801561001057600080fd5b50611436806100206000396000f3fe6080604052600436106100c25760003560e01c8063715018a61161007f5780638da5cb5b116100595780638da5cb5b146101c4578063be643f06146101ec578063c78f19f914610201578063f2fde38b1461021757600080fd5b8063715018a61461017a5780637c726b691461018f5780638129fc1c146101af57600080fd5b80631066c71e146100c757806312e85585146100fc57806313c0d2eb1461011b57806325135cbf1461013057806358eb2df5146101525780636502096a14610165575b600080fd5b3480156100d357600080fd5b506100e76100e2366004611264565b610237565b60405190151581526020015b60405180910390f35b34801561010857600080fd5b50609a545b6040519081526020016100f3565b61012e6101293660046111d1565b610260565b005b34801561013c57600080fd5b50610145610508565b6040516100f3919061127c565b61012e610160366004611212565b6106f3565b34801561017157600080fd5b50610145610a50565b34801561018657600080fd5b5061012e610c42565b34801561019b57600080fd5b5061012e6101aa366004611264565b610c78565b3480156101bb57600080fd5b5061012e610ca7565b3480156101d057600080fd5b506065546040516001600160a01b0390911681526020016100f3565b3480156101f857600080fd5b50610145610d38565b34801561020d57600080fd5b5061010d609a5481565b34801561022357600080fd5b5061012e6102323660046111b0565b610f2a565b6000818152609b60205260408120541561025357506001919050565b506000919050565b919050565b600260015414156102b85760405162461bcd60e51b815260206004820152601f60248201527f5265656e7472616e637947756172643a207265656e7472616e742063616c6c0060448201526064015b60405180910390fd5b600260018190556000838152609b6020526040902060058101549101548282146103355760405162461bcd60e51b815260206004820152602860248201527f506c73207375626d6974207468652061736b696e6720707269636520666f7220604482015267746865206974656d60c01b60648201526084016102af565b6000848152609b60205260408082206003015490516001600160a01b03909116913480156108fc02929091818181858888f1935050505015801561037d573d6000803e3d6000fd5b506040516323b872dd60e01b8152306004820152336024820152604481018290526001600160a01b038716906323b872dd90606401600060405180830381600087803b1580156103cc57600080fd5b505af11580156103e0573d6000803e3d6000fd5b5050506000858152609b6020526040908190206003015490516323b872dd60e01b81523360048201526001600160a01b0391821660248201526044810186905290871691506323b872dd90606401602060405180830381600087803b15801561044857600080fd5b505af115801561045c573d6000803e3d6000fd5b505050506040513d601f19601f820116820180604052508101906104809190611244565b506000848152609b602052604090206004810180546001600160a01b03191633179055600601805460ff191660011790556104bf609880546001019055565b609954609a546040516001600160a01b039092169181156108fc0291906000818181858888f193505050501580156104fb573d6000803e3d6000fd5b5050600180555050505050565b6060600061051560975490565b9050600061052260985490565b60975461052f91906113b8565b90506000808267ffffffffffffffff81111561055b57634e487b7160e01b600052604160045260246000fd5b60405190808252806020026020018201604052801561059457816020015b610581611155565b8152602001906001900390816105795790505b50905060005b848110156106ea576000609b816105b28460016113a0565b81526020810191909152604001600020600401546001600160a01b0316148015610607575033609b60006105e78460016113a0565b81526020810191909152604001600020600301546001600160a01b031614155b156106d857609b600061061b8360016113a0565b81526020808201929092526040908101600020815161010080820184528254825260018301546001600160a01b039081169583019590955260028301549382019390935260038201548416606082015260048201549093166080840152600581015460a08401526006015460ff808216151560c085015291900416151560e082015282518390859081106106bf57634e487b7160e01b600052603260045260246000fd5b60209081029190910101526106d56001846113a0565b92505b806106e2816113cf565b91505061059a565b50949350505050565b600260015414156107465760405162461bcd60e51b815260206004820152601f60248201527f5265656e7472616e637947756172643a207265656e7472616e742063616c6c0060448201526064016102af565b6002600155806107985760405162461bcd60e51b815260206004820152601c60248201527f7072696365206d757374206265206174206c656173742031207765690000000060448201526064016102af565b609a5434146107f55760405162461bcd60e51b815260206004820152602360248201527f5072696365206d75737420626520657175616c20746f206c697374696e67507260448201526269636560e81b60648201526084016102af565b610803609780546001019055565b600061080e60975490565b9050604051806101000160405280828152602001856001600160a01b03168152602001848152602001336001600160a01b0316815260200160006001600160a01b0316815260200183815260200160001515815260200160011515815250609b60008381526020019081526020016000206000820151816000015560208201518160010160006101000a8154816001600160a01b0302191690836001600160a01b031602179055506040820151816002015560608201518160030160006101000a8154816001600160a01b0302191690836001600160a01b0316021790555060808201518160040160006101000a8154816001600160a01b0302191690836001600160a01b0316021790555060a0820151816005015560c08201518160060160006101000a81548160ff02191690831515021790555060e08201518160060160016101000a81548160ff021916908315150217905550905050836001600160a01b03166323b872dd3330866040518463ffffffff1660e01b81526004016109b6939291906001600160a01b039384168152919092166020820152604081019190915260600190565b600060405180830381600087803b1580156109d057600080fd5b505af11580156109e4573d6000803e3d6000fd5b50506040805133815260006020820181905281830187905260608201526001608082015290518693506001600160a01b038816925084917f80c798993dcfe4c3fa5cab62b251f0d8247b1b2ea3c7b6099f1ef96d73b6af84919081900360a00190a45050600180555050565b60606000610a5d60975490565b905060008060005b83811015610ac05733609b6000610a7d8460016113a0565b81526020810191909152604001600020600401546001600160a01b03161415610aae57610aab6001846113a0565b92505b80610ab8816113cf565b915050610a65565b5060008267ffffffffffffffff811115610aea57634e487b7160e01b600052604160045260246000fd5b604051908082528060200260200182016040528015610b2357816020015b610b10611155565b815260200190600190039081610b085790505b50905060005b848110156106ea5733609b6000610b418460016113a0565b81526020810191909152604001600020600401546001600160a01b03161415610c3057609b6000610b738360016113a0565b81526020808201929092526040908101600020815161010080820184528254825260018301546001600160a01b039081169583019590955260028301549382019390935260038201548416606082015260048201549093166080840152600581015460a08401526006015460ff808216151560c085015291900416151560e08201528251839085908110610c1757634e487b7160e01b600052603260045260246000fd5b6020908102919091010152610c2d6001846113a0565b92505b80610c3a816113cf565b915050610b29565b6065546001600160a01b03163314610c6c5760405162461bcd60e51b81526004016102af9061136b565b610c766000610fbe565b565b6065546001600160a01b03163314610ca25760405162461bcd60e51b81526004016102af9061136b565b609a55565b600054610100900460ff1680610cc0575060005460ff16155b610cdc5760405162461bcd60e51b81526004016102af9061131d565b600054610100900460ff16158015610cfe576000805461ffff19166101011790555b610d06611010565b609980546001600160a01b031916331790556658d15e17628000609a558015610d35576000805461ff00191690555b50565b60606000610d4560975490565b905060008060005b83811015610da85733609b6000610d658460016113a0565b81526020810191909152604001600020600301546001600160a01b03161415610d9657610d936001846113a0565b92505b80610da0816113cf565b915050610d4d565b5060008267ffffffffffffffff811115610dd257634e487b7160e01b600052604160045260246000fd5b604051908082528060200260200182016040528015610e0b57816020015b610df8611155565b815260200190600190039081610df05790505b50905060005b848110156106ea5733609b6000610e298460016113a0565b81526020810191909152604001600020600301546001600160a01b03161415610f1857609b6000610e5b8360016113a0565b81526020808201929092526040908101600020815161010080820184528254825260018301546001600160a01b039081169583019590955260028301549382019390935260038201548416606082015260048201549093166080840152600581015460a08401526006015460ff808216151560c085015291900416151560e08201528251839085908110610eff57634e487b7160e01b600052603260045260246000fd5b6020908102919091010152610f156001846113a0565b92505b80610f22816113cf565b915050610e11565b6065546001600160a01b03163314610f545760405162461bcd60e51b81526004016102af9061136b565b6001600160a01b038116610fb95760405162461bcd60e51b815260206004820152602660248201527f4f776e61626c653a206e6577206f776e657220697320746865207a65726f206160448201526564647265737360d01b60648201526084016102af565b610d35815b606580546001600160a01b038381166001600160a01b0319831681179093556040519116919082907f8be0079c531659141344cd1fd0a4f28419497f9722a3daafe3b4186f6b6457e090600090a35050565b600054610100900460ff1680611029575060005460ff16155b6110455760405162461bcd60e51b81526004016102af9061131d565b600054610100900460ff16158015611067576000805461ffff19166101011790555b61106f61108b565b6110776110f5565b8015610d35576000805461ff001916905550565b600054610100900460ff16806110a4575060005460ff16155b6110c05760405162461bcd60e51b81526004016102af9061131d565b600054610100900460ff16158015611077576000805461ffff19166101011790558015610d35576000805461ff001916905550565b600054610100900460ff168061110e575060005460ff16155b61112a5760405162461bcd60e51b81526004016102af9061131d565b600054610100900460ff1615801561114c576000805461ffff19166101011790555b61107733610fbe565b6040805161010081018252600080825260208201819052918101829052606081018290526080810182905260a0810182905260c0810182905260e081019190915290565b80356001600160a01b038116811461025b57600080fd5b6000602082840312156111c1578081fd5b6111ca82611199565b9392505050565b600080600080608085870312156111e6578283fd5b6111ef85611199565b93506111fd60208601611199565b93969395505050506040820135916060013590565b600080600060608486031215611226578283fd5b61122f84611199565b95602085013595506040909401359392505050565b600060208284031215611255578081fd5b815180151581146111ca578182fd5b600060208284031215611275578081fd5b5035919050565b602080825282518282018190526000919060409081850190868401855b8281101561131057815180518552868101516001600160a01b039081168887015286820151878701526060808301518216908701526080808301519091169086015260a0808201519086015260c08082015115159086015260e0908101511515908501526101009093019290850190600101611299565b5091979650505050505050565b6020808252602e908201527f496e697469616c697a61626c653a20636f6e747261637420697320616c72656160408201526d191e481a5b9a5d1a585b1a5e995960921b606082015260800190565b6020808252818101527f4f776e61626c653a2063616c6c6572206973206e6f7420746865206f776e6572604082015260600190565b600082198211156113b3576113b36113ea565b500190565b6000828210156113ca576113ca6113ea565b500390565b60006000198214156113e3576113e36113ea565b5060010190565b634e487b7160e01b600052601160045260246000fdfea2646970667358221220ac39729f7418404dedb88d567026df8f3998e78c4beb3df27b876add4a00402464736f6c63430008040033",
  "linkReferences": {},
  "deployedLinkReferences": {}
}