{
  "_format": "hh-sol-artifact-1",
  "contractName": "DMarket",
  "sourceName": "contracts/DMarket.sol",
  "abi": [
    {
      "anonymous": false,
      "inputs": [
        {
          "indexed": true,
          "internalType": "uint256",
          "name": "itemId",
          "type": "uint256"
        },
        {
          "indexed": false,
          "internalType": "uint256",
          "name": "price",
          "type": "uint256"
        },
        {
          "indexed": false,
          "internalType": "string",
          "name": "name",
          "type": "string"
        },
        {
          "indexed": false,
          "internalType": "address",
          "name": "owner",
          "type": "address"
        },
        {
          "indexed": false,
          "internalType": "bool",
          "name": "isSold",
          "type": "bool"
        },
        {
          "indexed": false,
          "internalType": "bool",
          "name": "isPublished",
          "type": "bool"
        }
      ],
      "name": "itemCreated",
      "type": "event"
    },
    {
      "anonymous": false,
      "inputs": [
        {
          "indexed": true,
          "internalType": "uint256",
          "name": "itemId",
          "type": "uint256"
        },
        {
          "indexed": false,
          "internalType": "uint256",
          "name": "price",
          "type": "uint256"
        },
        {
          "indexed": false,
          "internalType": "string",
          "name": "name",
          "type": "string"
        },
        {
          "indexed": false,
          "internalType": "address",
          "name": "owner",
          "type": "address"
        },
        {
          "indexed": false,
          "internalType": "bool",
          "name": "isSold",
          "type": "bool"
        },
        {
          "indexed": false,
          "internalType": "bool",
          "name": "isPublished",
          "type": "bool"
        }
      ],
      "name": "itemPurchased",
      "type": "event"
    },
    {
      "inputs": [
        {
          "internalType": "address",
          "name": "tokenAddress",
          "type": "address"
        },
        {
          "internalType": "uint256",
          "name": "id",
          "type": "uint256"
        },
        {
          "internalType": "uint256",
          "name": "amount",
          "type": "uint256"
        }
      ],
      "name": "buyItem",
      "outputs": [],
      "stateMutability": "nonpayable",
      "type": "function"
    },
    {
      "inputs": [
        {
          "internalType": "string",
          "name": "_name",
          "type": "string"
        },
        {
          "internalType": "uint256",
          "name": "_price",
          "type": "uint256"
        }
      ],
      "name": "createItem",
      "outputs": [],
      "stateMutability": "nonpayable",
      "type": "function"
    },
    {
      "inputs": [
        {
          "internalType": "uint256",
          "name": "id",
          "type": "uint256"
        }
      ],
      "name": "publicItem",
      "outputs": [
        {
          "internalType": "bool",
          "name": "",
          "type": "bool"
        }
      ],
      "stateMutability": "nonpayable",
      "type": "function"
    }
  ],
  "bytecode": "0x6080604052606460025534801561001557600080fd5b5061068f806100256000396000f3fe608060405234801561001057600080fd5b50600436106100415760003560e01c80638c55174214610046578063d48fdc561461005b578063f6b45c46146100a5575b600080fd5b6100596100543660046104bc565b6100b8565b005b61009161006936600461056e565b600090815260036020819052604090912001805460ff60a81b1916600160a81b179055600190565b604051901515815260200160405180910390f35b6100596100b3366004610456565b6101c4565b6100c6600080546001019055565b600080546040805160c081018252828152602080820186815282840188815233606085015260006080850181905260a085018190528681526003845294909420835181559051600182015592518051949550919361012a92600285019201906103bd565b50606082015160039091018054608084015160a0909401511515600160a81b0260ff60a81b19941515600160a01b026001600160a81b03199092166001600160a01b0390941693909317179290921617905560405181907f4365851f4ec29e7e6faffd9fb4a67c46c89dc7be4a66045f96c80e44c9544c54906101b7908590879033906000908190610586565b60405180910390a2505050565b6000600360008481526020019081526020016000206040518060c0016040529081600082015481526020016001820154815260200160028201805461020890610608565b80601f016020809104026020016040519081016040528092919081815260200182805461023490610608565b80156102815780601f1061025657610100808354040283529160200191610281565b820191906000526020600020905b81548152906001019060200180831161026457829003601f168201915b5050509183525050600391909101546001600160a01b03811660208084019190915260ff600160a01b8304811615156040850152600160a81b909204909116151560609092019190915281015190915082146103235760405162461bcd60e51b815260206004820152601f60248201527f706c7320696e70757420616d6f756e7420657175616c20746f20707269636500604482015260640160405180910390fd5b6040516323b872dd60e01b8152336004820152306024820152604481018390526001600160a01b038516906323b872dd90606401602060405180830381600087803b15801561037157600080fd5b505af1158015610385573d6000803e3d6000fd5b505050506040513d601f19601f820116820180604052508101906103a99190610495565b503360608201526001608090910152505050565b8280546103c990610608565b90600052602060002090601f0160209004810192826103eb5760008555610431565b82601f1061040457805160ff1916838001178555610431565b82800160010185558215610431579182015b82811115610431578251825591602001919060010190610416565b5061043d929150610441565b5090565b5b8082111561043d5760008155600101610442565b60008060006060848603121561046a578283fd5b83356001600160a01b0381168114610480578384fd5b95602085013595506040909401359392505050565b6000602082840312156104a6578081fd5b815180151581146104b5578182fd5b9392505050565b600080604083850312156104ce578182fd5b823567ffffffffffffffff808211156104e5578384fd5b818501915085601f8301126104f8578384fd5b81358181111561050a5761050a610643565b604051601f8201601f19908116603f0116810190838211818310171561053257610532610643565b8160405282815288602084870101111561054a578687fd5b82602086016020830137918201602090810196909652509694909301359450505050565b60006020828403121561057f578081fd5b5035919050565b8581526000602060a08184015286518060a0850152825b818110156105b95788810183015185820160c00152820161059d565b818111156105ca578360c083870101525b50601f01601f1916830160c00191506105f0905060408301866001600160a01b03169052565b92151560608201529015156080909101529392505050565b600181811c9082168061061c57607f821691505b6020821081141561063d57634e487b7160e01b600052602260045260246000fd5b50919050565b634e487b7160e01b600052604160045260246000fdfea26469706673582212202eba0b0977fdfb75128e2dd1b02ba5e1af625bec94471add1b7bf13e9b37082064736f6c63430008040033",
  "linkReferences": {},
  "deployedLinkReferences": {}
}