{
  "_format": "hh-sol-artifact-1",
  "contractName": "Swap",
  "sourceName": "contracts/Swap.sol",
  "abi": [
    {
      "inputs": [
        {
          "internalType": "address",
          "name": "_tokenAddress",
          "type": "address"
        }
      ],
      "stateMutability": "nonpayable",
      "type": "constructor"
    },
    {
      "anonymous": false,
      "inputs": [
        {
          "indexed": true,
          "internalType": "address",
          "name": "previousOwner",
          "type": "address"
        },
        {
          "indexed": true,
          "internalType": "address",
          "name": "newOwner",
          "type": "address"
        }
      ],
      "name": "OwnershipTransferred",
      "type": "event"
    },
    {
      "anonymous": false,
      "inputs": [
        {
          "indexed": false,
          "internalType": "address",
          "name": "owner",
          "type": "address"
        },
        {
          "indexed": false,
          "internalType": "address",
          "name": "receiver",
          "type": "address"
        },
        {
          "indexed": false,
          "internalType": "address",
          "name": "token",
          "type": "address"
        },
        {
          "indexed": false,
          "internalType": "uint256",
          "name": "amount",
          "type": "uint256"
        },
        {
          "indexed": false,
          "internalType": "uint256",
          "name": "rate",
          "type": "uint256"
        }
      ],
      "name": "TokenSell",
      "type": "event"
    },
    {
      "anonymous": false,
      "inputs": [
        {
          "indexed": false,
          "internalType": "uint256",
          "name": "amount",
          "type": "uint256"
        },
        {
          "indexed": false,
          "internalType": "address",
          "name": "token",
          "type": "address"
        },
        {
          "indexed": false,
          "internalType": "address",
          "name": "owner",
          "type": "address"
        }
      ],
      "name": "TokenToOwner",
      "type": "event"
    },
    {
      "anonymous": false,
      "inputs": [
        {
          "indexed": false,
          "internalType": "address",
          "name": "account",
          "type": "address"
        },
        {
          "indexed": false,
          "internalType": "address",
          "name": "token",
          "type": "address"
        },
        {
          "indexed": false,
          "internalType": "uint256",
          "name": "amount",
          "type": "uint256"
        },
        {
          "indexed": false,
          "internalType": "uint256",
          "name": "rate",
          "type": "uint256"
        }
      ],
      "name": "TokensPurchased",
      "type": "event"
    },
    {
      "inputs": [],
      "name": "buyToken",
      "outputs": [],
      "stateMutability": "payable",
      "type": "function"
    },
    {
      "inputs": [
        {
          "internalType": "uint256",
          "name": "amount",
          "type": "uint256"
        }
      ],
      "name": "getTokenFromContract",
      "outputs": [],
      "stateMutability": "nonpayable",
      "type": "function"
    },
    {
      "inputs": [],
      "name": "owner",
      "outputs": [
        {
          "internalType": "address",
          "name": "",
          "type": "address"
        }
      ],
      "stateMutability": "view",
      "type": "function"
    },
    {
      "inputs": [],
      "name": "renounceOwnership",
      "outputs": [],
      "stateMutability": "nonpayable",
      "type": "function"
    },
    {
      "inputs": [
        {
          "internalType": "uint256",
          "name": "amount",
          "type": "uint256"
        },
        {
          "internalType": "address",
          "name": "_receiver",
          "type": "address"
        }
      ],
      "name": "sellToken",
      "outputs": [],
      "stateMutability": "payable",
      "type": "function"
    },
    {
      "inputs": [
        {
          "internalType": "address",
          "name": "newOwner",
          "type": "address"
        }
      ],
      "name": "transferOwnership",
      "outputs": [],
      "stateMutability": "nonpayable",
      "type": "function"
    }
  ],
  "bytecode": "0x60806040526103e860015534801561001657600080fd5b50604051610849380380610849833981016040819052610035916100b3565b61003e33610063565b600280546001600160a01b0319166001600160a01b03929092169190911790556100e1565b600080546001600160a01b038381166001600160a01b0319831681178455604051919092169283917f8be0079c531659141344cd1fd0a4f28419497f9722a3daafe3b4186f6b6457e09190a35050565b6000602082840312156100c4578081fd5b81516001600160a01b03811681146100da578182fd5b9392505050565b610759806100f06000396000f3fe6080604052600436106100555760003560e01c8063715018a61461005a5780638da5cb5b14610071578063a48217191461009d578063dd4549b7146100a5578063ed98c908146100b8578063f2fde38b146100d8575b600080fd5b34801561006657600080fd5b5061006f6100f8565b005b34801561007d57600080fd5b50600054604080516001600160a01b039092168252519081900360200190f35b61006f610137565b61006f6100b33660046106c3565b61018a565b3480156100c457600080fd5b5061006f6100d3366004610693565b6103be565b3480156100e457600080fd5b5061006f6100f3366004610652565b61054b565b6000546001600160a01b0316331461012b5760405162461bcd60e51b8152600401610122906106ee565b60405180910390fd5b61013560006105e6565b565b60405162461bcd60e51b815260206004820152601c60248201527f76616c7565206d7573742067726561746572207468616e207a65726f000000006044820152606401610122565b60405180910390a150565b6001600160a01b03811661019d57600080fd5b600082116101fb5760405162461bcd60e51b815260206004820152602560248201527f596f75206e65656420746f2073656c6c206174206c6561737420736f6d6520746044820152646f6b656e7360d81b6064820152608401610122565b600254604051636eb1769f60e11b81523360048201523060248201526000916001600160a01b03169063dd62ed3e9060440160206040518083038186803b15801561024557600080fd5b505afa158015610259573d6000803e3d6000fd5b505050506040513d601f19601f8201168201806040525081019061027d91906106ab565b9050828110156102cf5760405162461bcd60e51b815260206004820152601960248201527f436865636b2074686520746f6b656e20616c6c6f77616e6365000000000000006044820152606401610122565b6002546040516323b872dd60e01b81523360048201526001600160a01b03848116602483015260448201869052909116906323b872dd90606401602060405180830381600087803b15801561032357600080fd5b505af1158015610337573d6000803e3d6000fd5b505050506040513d601f19601f8201168201806040525081019061035b9190610673565b50600254600154604080513381526001600160a01b038087166020830152909316908301526060820185905260808201527f67f76cf195c54577801ccdb4792af9dabc7b36eea93d1d9816ad4f888b5a82559060a00160405180910390a1505050565b6000546001600160a01b031633146103e85760405162461bcd60e51b8152600401610122906106ee565b600081116104385760405162461bcd60e51b815260206004820152601d60248201527f616d6f756e74206d7573742067726561746572207468616e207a65726f0000006044820152606401610122565b6002546001600160a01b03166323b872dd3061045c6000546001600160a01b031690565b6040516001600160e01b031960e085901b1681526001600160a01b0392831660048201529116602482015260448101849052606401602060405180830381600087803b1580156104ab57600080fd5b505af11580156104bf573d6000803e3d6000fd5b505050506040513d601f19601f820116820180604052508101906104e39190610673565b506002547f78776cef273e313163395f22c6393fda3dc005f5ee505f310cf48a9dfae652709082906001600160a01b03166105266000546001600160a01b031690565b604080519384526001600160a01b03928316602085015291169082015260600161017f565b6000546001600160a01b031633146105755760405162461bcd60e51b8152600401610122906106ee565b6001600160a01b0381166105da5760405162461bcd60e51b815260206004820152602660248201527f4f776e61626c653a206e6577206f776e657220697320746865207a65726f206160448201526564647265737360d01b6064820152608401610122565b6105e3816105e6565b50565b600080546001600160a01b038381166001600160a01b0319831681178455604051919092169283917f8be0079c531659141344cd1fd0a4f28419497f9722a3daafe3b4186f6b6457e09190a35050565b80356001600160a01b038116811461064d57600080fd5b919050565b600060208284031215610663578081fd5b61066c82610636565b9392505050565b600060208284031215610684578081fd5b8151801515811461066c578182fd5b6000602082840312156106a4578081fd5b5035919050565b6000602082840312156106bc578081fd5b5051919050565b600080604083850312156106d5578081fd5b823591506106e560208401610636565b90509250929050565b6020808252818101527f4f776e61626c653a2063616c6c6572206973206e6f7420746865206f776e657260408201526060019056fea26469706673582212201bdc68ffb02ce5029fac6936de0c0fd01fbb8bfee57d124dd2d750e490457af864736f6c63430008040033",
  "linkReferences": {},
  "deployedLinkReferences": {}
}